Archive member included to satisfy reference by file (symbol)

/home/bj/workspace/eclipse/stm32/stm32f405rg_stdperiph_lib/Debug/libstm32f405rg_stdperiph_lib.a(misc.o)
                              src/bsp.o (NVIC_PriorityGroupConfig)
/home/bj/workspace/eclipse/stm32/stm32f405rg_stdperiph_lib/Debug/libstm32f405rg_stdperiph_lib.a(stm32f4xx_can.o)
                              src/can1.o (CAN_DeInit)
/home/bj/workspace/eclipse/stm32/stm32f405rg_stdperiph_lib/Debug/libstm32f405rg_stdperiph_lib.a(stm32f4xx_dma.o)
                              src/usart1.o (DMA_DeInit)
/home/bj/workspace/eclipse/stm32/stm32f405rg_stdperiph_lib/Debug/libstm32f405rg_stdperiph_lib.a(stm32f4xx_gpio.o)
                              src/can1.o (GPIO_Init)
/home/bj/workspace/eclipse/stm32/stm32f405rg_stdperiph_lib/Debug/libstm32f405rg_stdperiph_lib.a(stm32f4xx_rcc.o)
                              src/can1.o (RCC_AHB1PeriphClockCmd)
/home/bj/workspace/eclipse/stm32/stm32f405rg_stdperiph_lib/Debug/libstm32f405rg_stdperiph_lib.a(stm32f4xx_tim.o)
                              src/pwm.o (TIM_TimeBaseInit)
/home/bj/workspace/eclipse/stm32/stm32f405rg_stdperiph_lib/Debug/libstm32f405rg_stdperiph_lib.a(stm32f4xx_usart.o)
                              src/usart1.o (USART_DeInit)
/home/bj/.p2/pool/plugins/fr.ac6.mcu.externaltools.arm-none.linux64_1.12.0.201611241417/tools/compiler/bin/../lib/gcc/arm-none-eabi/5.4.1/../../../../arm-none-eabi/lib/armv7e-m/fpu/libc.a(lib_a-errno.o)
                              src/syscalls.o (__errno)
/home/bj/.p2/pool/plugins/fr.ac6.mcu.externaltools.arm-none.linux64_1.12.0.201611241417/tools/compiler/bin/../lib/gcc/arm-none-eabi/5.4.1/../../../../arm-none-eabi/lib/armv7e-m/fpu/libc.a(lib_a-exit.o)
                              /home/bj/.p2/pool/plugins/fr.ac6.mcu.externaltools.arm-none.linux64_1.12.0.201611241417/tools/compiler/bin/../lib/gcc/arm-none-eabi/5.4.1/../../../../arm-none-eabi/lib/armv7e-m/fpu/crt0.o (exit)
/home/bj/.p2/pool/plugins/fr.ac6.mcu.externaltools.arm-none.linux64_1.12.0.201611241417/tools/compiler/bin/../lib/gcc/arm-none-eabi/5.4.1/../../../../arm-none-eabi/lib/armv7e-m/fpu/libc.a(lib_a-impure.o)
                              /home/bj/.p2/pool/plugins/fr.ac6.mcu.externaltools.arm-none.linux64_1.12.0.201611241417/tools/compiler/bin/../lib/gcc/arm-none-eabi/5.4.1/../../../../arm-none-eabi/lib/armv7e-m/fpu/libc.a(lib_a-exit.o) (_global_impure_ptr)
/home/bj/.p2/pool/plugins/fr.ac6.mcu.externaltools.arm-none.linux64_1.12.0.201611241417/tools/compiler/bin/../lib/gcc/arm-none-eabi/5.4.1/../../../../arm-none-eabi/lib/armv7e-m/fpu/libc.a(lib_a-init.o)
                              /home/bj/.p2/pool/plugins/fr.ac6.mcu.externaltools.arm-none.linux64_1.12.0.201611241417/tools/compiler/bin/../lib/gcc/arm-none-eabi/5.4.1/../../../../arm-none-eabi/lib/armv7e-m/fpu/crt0.o (__libc_init_array)
/home/bj/.p2/pool/plugins/fr.ac6.mcu.externaltools.arm-none.linux64_1.12.0.201611241417/tools/compiler/bin/../lib/gcc/arm-none-eabi/5.4.1/../../../../arm-none-eabi/lib/armv7e-m/fpu/libc.a(lib_a-malloc.o)
                              src/fifo.o (malloc)
/home/bj/.p2/pool/plugins/fr.ac6.mcu.externaltools.arm-none.linux64_1.12.0.201611241417/tools/compiler/bin/../lib/gcc/arm-none-eabi/5.4.1/../../../../arm-none-eabi/lib/armv7e-m/fpu/libc.a(lib_a-mallocr.o)
                              /home/bj/.p2/pool/plugins/fr.ac6.mcu.externaltools.arm-none.linux64_1.12.0.201611241417/tools/compiler/bin/../lib/gcc/arm-none-eabi/5.4.1/../../../../arm-none-eabi/lib/armv7e-m/fpu/libc.a(lib_a-malloc.o) (_malloc_r)
/home/bj/.p2/pool/plugins/fr.ac6.mcu.externaltools.arm-none.linux64_1.12.0.201611241417/tools/compiler/bin/../lib/gcc/arm-none-eabi/5.4.1/../../../../arm-none-eabi/lib/armv7e-m/fpu/libc.a(lib_a-memset.o)
                              /home/bj/.p2/pool/plugins/fr.ac6.mcu.externaltools.arm-none.linux64_1.12.0.201611241417/tools/compiler/bin/../lib/gcc/arm-none-eabi/5.4.1/../../../../arm-none-eabi/lib/armv7e-m/fpu/crt0.o (memset)
/home/bj/.p2/pool/plugins/fr.ac6.mcu.externaltools.arm-none.linux64_1.12.0.201611241417/tools/compiler/bin/../lib/gcc/arm-none-eabi/5.4.1/../../../../arm-none-eabi/lib/armv7e-m/fpu/libc.a(lib_a-mlock.o)
                              /home/bj/.p2/pool/plugins/fr.ac6.mcu.externaltools.arm-none.linux64_1.12.0.201611241417/tools/compiler/bin/../lib/gcc/arm-none-eabi/5.4.1/../../../../arm-none-eabi/lib/armv7e-m/fpu/libc.a(lib_a-mallocr.o) (__malloc_lock)
/home/bj/.p2/pool/plugins/fr.ac6.mcu.externaltools.arm-none.linux64_1.12.0.201611241417/tools/compiler/bin/../lib/gcc/arm-none-eabi/5.4.1/../../../../arm-none-eabi/lib/armv7e-m/fpu/libc.a(lib_a-sbrkr.o)
                              /home/bj/.p2/pool/plugins/fr.ac6.mcu.externaltools.arm-none.linux64_1.12.0.201611241417/tools/compiler/bin/../lib/gcc/arm-none-eabi/5.4.1/../../../../arm-none-eabi/lib/armv7e-m/fpu/libc.a(lib_a-mallocr.o) (_sbrk_r)
/home/bj/.p2/pool/plugins/fr.ac6.mcu.externaltools.arm-none.linux64_1.12.0.201611241417/tools/compiler/bin/../lib/gcc/arm-none-eabi/5.4.1/../../../../arm-none-eabi/lib/armv7e-m/fpu/libc.a(lib_a-__call_atexit.o)
                              /home/bj/.p2/pool/plugins/fr.ac6.mcu.externaltools.arm-none.linux64_1.12.0.201611241417/tools/compiler/bin/../lib/gcc/arm-none-eabi/5.4.1/../../../../arm-none-eabi/lib/armv7e-m/fpu/libc.a(lib_a-exit.o) (__call_exitprocs)
/home/bj/.p2/pool/plugins/fr.ac6.mcu.externaltools.arm-none.linux64_1.12.0.201611241417/tools/compiler/bin/../lib/gcc/arm-none-eabi/5.4.1/../../../../arm-none-eabi/lib/armv7e-m/fpu/libc.a(lib_a-atexit.o)
                              /home/bj/.p2/pool/plugins/fr.ac6.mcu.externaltools.arm-none.linux64_1.12.0.201611241417/tools/compiler/bin/../lib/gcc/arm-none-eabi/5.4.1/../../../../arm-none-eabi/lib/armv7e-m/fpu/libc.a(lib_a-__call_atexit.o) (atexit)
/home/bj/.p2/pool/plugins/fr.ac6.mcu.externaltools.arm-none.linux64_1.12.0.201611241417/tools/compiler/bin/../lib/gcc/arm-none-eabi/5.4.1/../../../../arm-none-eabi/lib/armv7e-m/fpu/libc.a(lib_a-fini.o)
                              /home/bj/.p2/pool/plugins/fr.ac6.mcu.externaltools.arm-none.linux64_1.12.0.201611241417/tools/compiler/bin/../lib/gcc/arm-none-eabi/5.4.1/../../../../arm-none-eabi/lib/armv7e-m/fpu/libc.a(lib_a-__call_atexit.o) (__libc_fini_array)
/home/bj/.p2/pool/plugins/fr.ac6.mcu.externaltools.arm-none.linux64_1.12.0.201611241417/tools/compiler/bin/../lib/gcc/arm-none-eabi/5.4.1/../../../../arm-none-eabi/lib/armv7e-m/fpu/libc.a(lib_a-freer.o)
                              /home/bj/.p2/pool/plugins/fr.ac6.mcu.externaltools.arm-none.linux64_1.12.0.201611241417/tools/compiler/bin/../lib/gcc/arm-none-eabi/5.4.1/../../../../arm-none-eabi/lib/armv7e-m/fpu/libc.a(lib_a-malloc.o) (_free_r)
/home/bj/.p2/pool/plugins/fr.ac6.mcu.externaltools.arm-none.linux64_1.12.0.201611241417/tools/compiler/bin/../lib/gcc/arm-none-eabi/5.4.1/../../../../arm-none-eabi/lib/armv7e-m/fpu/libc.a(lib_a-reent.o)
                              /home/bj/.p2/pool/plugins/fr.ac6.mcu.externaltools.arm-none.linux64_1.12.0.201611241417/tools/compiler/bin/../lib/gcc/arm-none-eabi/5.4.1/../../../../arm-none-eabi/lib/armv7e-m/fpu/libc.a(lib_a-sbrkr.o) (errno)
/home/bj/.p2/pool/plugins/fr.ac6.mcu.externaltools.arm-none.linux64_1.12.0.201611241417/tools/compiler/bin/../lib/gcc/arm-none-eabi/5.4.1/../../../../arm-none-eabi/lib/armv7e-m/fpu/libc.a(lib_a-__atexit.o)
                              /home/bj/.p2/pool/plugins/fr.ac6.mcu.externaltools.arm-none.linux64_1.12.0.201611241417/tools/compiler/bin/../lib/gcc/arm-none-eabi/5.4.1/../../../../arm-none-eabi/lib/armv7e-m/fpu/libc.a(lib_a-atexit.o) (__register_exitproc)

Allocating common symbols
Common symbol       size              file

dbus                0x16              src/usart1.o
errno               0x4               /home/bj/.p2/pool/plugins/fr.ac6.mcu.externaltools.arm-none.linux64_1.12.0.201611241417/tools/compiler/bin/../lib/gcc/arm-none-eabi/5.4.1/../../../../arm-none-eabi/lib/armv7e-m/fpu/libc.a(lib_a-reent.o)
usart1_dma_rx_buf   0x48              src/usart1.o
can2RxMsg           0x14              src/can2.o
can1RxMsg           0x14              src/can1.o
odom                0x10              src/odom_task.o

Discarded input sections

 .text          0x00000000        0x0 /home/bj/.p2/pool/plugins/fr.ac6.mcu.externaltools.arm-none.linux64_1.12.0.201611241417/tools/compiler/bin/../lib/gcc/arm-none-eabi/5.4.1/armv7e-m/fpu/crti.o
 .data          0x00000000        0x0 /home/bj/.p2/pool/plugins/fr.ac6.mcu.externaltools.arm-none.linux64_1.12.0.201611241417/tools/compiler/bin/../lib/gcc/arm-none-eabi/5.4.1/armv7e-m/fpu/crti.o
 .bss           0x00000000        0x0 /home/bj/.p2/pool/plugins/fr.ac6.mcu.externaltools.arm-none.linux64_1.12.0.201611241417/tools/compiler/bin/../lib/gcc/arm-none-eabi/5.4.1/armv7e-m/fpu/crti.o
 .data          0x00000000        0x4 /home/bj/.p2/pool/plugins/fr.ac6.mcu.externaltools.arm-none.linux64_1.12.0.201611241417/tools/compiler/bin/../lib/gcc/arm-none-eabi/5.4.1/armv7e-m/fpu/crtbegin.o
 .text          0x00000000       0x74 /home/bj/.p2/pool/plugins/fr.ac6.mcu.externaltools.arm-none.linux64_1.12.0.201611241417/tools/compiler/bin/../lib/gcc/arm-none-eabi/5.4.1/../../../../arm-none-eabi/lib/armv7e-m/fpu/crt0.o
 .data          0x00000000        0x0 /home/bj/.p2/pool/plugins/fr.ac6.mcu.externaltools.arm-none.linux64_1.12.0.201611241417/tools/compiler/bin/../lib/gcc/arm-none-eabi/5.4.1/../../../../arm-none-eabi/lib/armv7e-m/fpu/crt0.o
 .bss           0x00000000        0x0 /home/bj/.p2/pool/plugins/fr.ac6.mcu.externaltools.arm-none.linux64_1.12.0.201611241417/tools/compiler/bin/../lib/gcc/arm-none-eabi/5.4.1/../../../../arm-none-eabi/lib/armv7e-m/fpu/crt0.o
 .ARM.extab     0x00000000        0x0 /home/bj/.p2/pool/plugins/fr.ac6.mcu.externaltools.arm-none.linux64_1.12.0.201611241417/tools/compiler/bin/../lib/gcc/arm-none-eabi/5.4.1/../../../../arm-none-eabi/lib/armv7e-m/fpu/crt0.o
 .ARM.exidx     0x00000000        0x8 /home/bj/.p2/pool/plugins/fr.ac6.mcu.externaltools.arm-none.linux64_1.12.0.201611241417/tools/compiler/bin/../lib/gcc/arm-none-eabi/5.4.1/../../../../arm-none-eabi/lib/armv7e-m/fpu/crt0.o
 .ARM.attributes
                0x00000000       0x20 /home/bj/.p2/pool/plugins/fr.ac6.mcu.externaltools.arm-none.linux64_1.12.0.201611241417/tools/compiler/bin/../lib/gcc/arm-none-eabi/5.4.1/../../../../arm-none-eabi/lib/armv7e-m/fpu/crt0.o
 .group         0x00000000        0x8 src/bsp.o
 .group         0x00000000        0x8 src/bsp.o
 .group         0x00000000        0x8 src/bsp.o
 .group         0x00000000        0x8 src/bsp.o
 .group         0x00000000        0x8 src/bsp.o
 .group         0x00000000        0x8 src/bsp.o
 .group         0x00000000        0x8 src/bsp.o
Memory Configuration

Name             Origin             Length             Attributes
RAM              0x20000000         0x00020000         xrw
ROM              0x08000000         0x00100000         xr
*default*        0x00000000         0xffffffff

Linker script and memory map

LOAD /home/bj/.p2/pool/plugins/fr.ac6.mcu.externaltools.arm-none.linux64_1.12.0.201611241417/tools/compiler/bin/../lib/gcc/arm-none-eabi/5.4.1/armv7e-m/fpu/crti.o
LOAD /home/bj/.p2/pool/plugins/fr.ac6.mcu.externaltools.arm-none.linux64_1.12.0.201611241417/tools/compiler/bin/../lib/gcc/arm-none-eabi/5.4.1/armv7e-m/fpu/crtbegin.o
LOAD /home/bj/.p2/pool/plugins/fr.ac6.mcu.externaltools.arm-none.linux64_1.12.0.201611241417/tools/compiler/bin/../lib/gcc/arm-none-eabi/5.4.1/../../../../arm-none-eabi/lib/armv7e-m/fpu/crt0.o
LOAD /home/bj/.p2/pool/plugins/fr.ac6.mcu.externaltools.arm-none.linux64_1.12.0.201611241417/tools/compiler/bin/../lib/gcc/arm-none-eabi/5.4.1/../../../../arm-none-eabi/lib/armv7e-m/fpu/libm.a
LOAD src/bsp.o
LOAD src/can1.o
LOAD src/can1_task.o
LOAD src/can2.o
LOAD src/can2_task.o
LOAD src/control_task.o
LOAD src/crc16.o
LOAD src/dbus.o
LOAD src/dbus_task.o
LOAD src/delay.o
LOAD src/encoder.o
LOAD src/fifo.o
LOAD src/led.o
LOAD src/main.o
LOAD src/mecanum.o
LOAD src/motor.o
LOAD src/odom_task.o
LOAD src/pid.o
LOAD src/pwm.o
LOAD src/quad_encoder.o
LOAD src/ramp.o
LOAD src/syscalls.o
LOAD src/system_stm32f4xx.o
LOAD src/timer.o
LOAD src/usart1.o
LOAD src/usart3.o
LOAD src/zgyro.o
LOAD startup/startup_stm32.o
LOAD /home/bj/workspace/eclipse/stm32/stm32f405rg_stdperiph_lib/Debug/libstm32f405rg_stdperiph_lib.a
START GROUP
LOAD /home/bj/.p2/pool/plugins/fr.ac6.mcu.externaltools.arm-none.linux64_1.12.0.201611241417/tools/compiler/bin/../lib/gcc/arm-none-eabi/5.4.1/armv7e-m/fpu/libgcc.a
LOAD /home/bj/.p2/pool/plugins/fr.ac6.mcu.externaltools.arm-none.linux64_1.12.0.201611241417/tools/compiler/bin/../lib/gcc/arm-none-eabi/5.4.1/../../../../arm-none-eabi/lib/armv7e-m/fpu/libc.a
END GROUP
LOAD /home/bj/.p2/pool/plugins/fr.ac6.mcu.externaltools.arm-none.linux64_1.12.0.201611241417/tools/compiler/bin/../lib/gcc/arm-none-eabi/5.4.1/armv7e-m/fpu/crtend.o
LOAD /home/bj/.p2/pool/plugins/fr.ac6.mcu.externaltools.arm-none.linux64_1.12.0.201611241417/tools/compiler/bin/../lib/gcc/arm-none-eabi/5.4.1/armv7e-m/fpu/crtn.o
                0x20020000                _estack = 0x20020000
                0x00000000                _Min_Heap_Size = 0x0
                0x00000400                _Min_Stack_Size = 0x400

.isr_vector     0x08000000      0x188
                0x08000000                . = ALIGN (0x4)
 *(.isr_vector)
 .isr_vector    0x08000000      0x188 startup/startup_stm32.o
                0x08000000                g_pfnVectors
                0x08000188                . = ALIGN (0x4)

.text           0x08000188     0x2efc
                0x08000188                . = ALIGN (0x4)
 *(.text)
 .text          0x08000188       0x5c /home/bj/.p2/pool/plugins/fr.ac6.mcu.externaltools.arm-none.linux64_1.12.0.201611241417/tools/compiler/bin/../lib/gcc/arm-none-eabi/5.4.1/armv7e-m/fpu/crtbegin.o
 *(.text*)
 .text.BSP_Config
                0x080001e4       0x44 src/bsp.o
                0x080001e4                BSP_Config
 .text.CAN1_Config
                0x08000228      0x11c src/can1.o
                0x08000228                CAN1_Config
 .text.CAN2_Config
                0x08000344      0x11c src/can2.o
                0x08000344                CAN2_Config
 .text.CRC16Calc
                0x08000460       0x5c src/crc16.o
                0x08000460                CRC16Calc
 .text.CRC16Append
                0x080004bc       0x5c src/crc16.o
                0x080004bc                CRC16Append
 .text.FIFO_Create
                0x08000518       0x68 src/fifo.o
                0x08000518                FIFO_Create
 .text.FIFO_Push
                0x08000580       0x60 src/fifo.o
                0x08000580                FIFO_Push
 .text.Led_Config
                0x080005e0       0x44 src/led.o
                0x080005e0                Led_Config
 .text.main     0x08000624       0x30 src/main.o
                0x08000624                main
 .text.Mecanum_Synthesis
                0x08000654       0xd4 src/mecanum.o
                0x08000654                Mecanum_Synthesis
 .text.OdomTask
                0x08000728      0x138 src/odom_task.o
                0x08000728                OdomTask
 .text.PWM_Config
                0x08000860      0x1d0 src/pwm.o
                0x08000860                PWM_Config
 .text.QuadEncoder_Config
                0x08000a30       0x70 src/quad_encoder.o
                0x08000a30                QuadEncoder_Config
 .text._sbrk    0x08000aa0       0x58 src/syscalls.o
                0x08000aa0                _sbrk
 .text.SystemInit
                0x08000af8       0x6c src/system_stm32f4xx.o
                0x08000af8                SystemInit
 .text.SetSysClock
                0x08000b64       0xf8 src/system_stm32f4xx.o
 .text.TIM6_Config
                0x08000c5c       0x50 src/timer.o
                0x08000c5c                TIM6_Config
 .text.TIM6_Start
                0x08000cac       0x28 src/timer.o
                0x08000cac                TIM6_Start
 .text.TIM2_Config
                0x08000cd4       0x48 src/timer.o
                0x08000cd4                TIM2_Config
 .text.USART1_Config
                0x08000d1c      0x174 src/usart1.o
                0x08000d1c                USART1_Config
 .text.USART3_Config
                0x08000e90       0xc4 src/usart3.o
                0x08000e90                USART3_Config
 .text.USART3_WriteBlock
                0x08000f54       0x50 src/usart3.o
                0x08000f54                USART3_WriteBlock
 .text.Reset_Handler
                0x08000fa4       0x48 startup/startup_stm32.o
                0x08000fa4                Reset_Handler
 .text.Default_Handler
                0x08000fec        0x2 startup/startup_stm32.o
                0x08000fec                DebugMon_Handler
                0x08000fec                HardFault_Handler
                0x08000fec                SysTick_Handler
                0x08000fec                PendSV_Handler
                0x08000fec                NMI_Handler
                0x08000fec                UsageFault_Handler
                0x08000fec                Default_Handler
                0x08000fec                MemManage_Handler
                0x08000fec                SVC_Handler
                0x08000fec                BusFault_Handler
 *fill*         0x08000fee        0x2 
 .text.NVIC_PriorityGroupConfig
                0x08000ff0       0x28 /home/bj/workspace/eclipse/stm32/stm32f405rg_stdperiph_lib/Debug/libstm32f405rg_stdperiph_lib.a(misc.o)
                0x08000ff0                NVIC_PriorityGroupConfig
 .text.NVIC_Init
                0x08001018       0xc4 /home/bj/workspace/eclipse/stm32/stm32f405rg_stdperiph_lib/Debug/libstm32f405rg_stdperiph_lib.a(misc.o)
                0x08001018                NVIC_Init
 .text.CAN_DeInit
                0x080010dc       0x48 /home/bj/workspace/eclipse/stm32/stm32f405rg_stdperiph_lib/Debug/libstm32f405rg_stdperiph_lib.a(stm32f4xx_can.o)
                0x080010dc                CAN_DeInit
 .text.CAN_Init
                0x08001124      0x1a4 /home/bj/workspace/eclipse/stm32/stm32f405rg_stdperiph_lib/Debug/libstm32f405rg_stdperiph_lib.a(stm32f4xx_can.o)
                0x08001124                CAN_Init
 .text.CAN_FilterInit
                0x080012c8      0x178 /home/bj/workspace/eclipse/stm32/stm32f405rg_stdperiph_lib/Debug/libstm32f405rg_stdperiph_lib.a(stm32f4xx_can.o)
                0x080012c8                CAN_FilterInit
 .text.CAN_StructInit
                0x08001440       0x58 /home/bj/workspace/eclipse/stm32/stm32f405rg_stdperiph_lib/Debug/libstm32f405rg_stdperiph_lib.a(stm32f4xx_can.o)
                0x08001440                CAN_StructInit
 .text.CAN_ITConfig
                0x08001498       0x3c /home/bj/workspace/eclipse/stm32/stm32f405rg_stdperiph_lib/Debug/libstm32f405rg_stdperiph_lib.a(stm32f4xx_can.o)
                0x08001498                CAN_ITConfig
 .text.DMA_DeInit
                0x080014d4      0x1a8 /home/bj/workspace/eclipse/stm32/stm32f405rg_stdperiph_lib/Debug/libstm32f405rg_stdperiph_lib.a(stm32f4xx_dma.o)
                0x080014d4                DMA_DeInit
 .text.DMA_Init
                0x0800167c       0xb0 /home/bj/workspace/eclipse/stm32/stm32f405rg_stdperiph_lib/Debug/libstm32f405rg_stdperiph_lib.a(stm32f4xx_dma.o)
                0x0800167c                DMA_Init
 .text.DMA_StructInit
                0x0800172c       0x70 /home/bj/workspace/eclipse/stm32/stm32f405rg_stdperiph_lib/Debug/libstm32f405rg_stdperiph_lib.a(stm32f4xx_dma.o)
                0x0800172c                DMA_StructInit
 .text.DMA_Cmd  0x0800179c       0x38 /home/bj/workspace/eclipse/stm32/stm32f405rg_stdperiph_lib/Debug/libstm32f405rg_stdperiph_lib.a(stm32f4xx_dma.o)
                0x0800179c                DMA_Cmd
 .text.DMA_DoubleBufferModeConfig
                0x080017d4       0x40 /home/bj/workspace/eclipse/stm32/stm32f405rg_stdperiph_lib/Debug/libstm32f405rg_stdperiph_lib.a(stm32f4xx_dma.o)
                0x080017d4                DMA_DoubleBufferModeConfig
 .text.DMA_DoubleBufferModeCmd
                0x08001814       0x38 /home/bj/workspace/eclipse/stm32/stm32f405rg_stdperiph_lib/Debug/libstm32f405rg_stdperiph_lib.a(stm32f4xx_dma.o)
                0x08001814                DMA_DoubleBufferModeCmd
 .text.GPIO_Init
                0x0800184c      0x11c /home/bj/workspace/eclipse/stm32/stm32f405rg_stdperiph_lib/Debug/libstm32f405rg_stdperiph_lib.a(stm32f4xx_gpio.o)
                0x0800184c                GPIO_Init
 .text.GPIO_StructInit
                0x08001968       0x34 /home/bj/workspace/eclipse/stm32/stm32f405rg_stdperiph_lib/Debug/libstm32f405rg_stdperiph_lib.a(stm32f4xx_gpio.o)
                0x08001968                GPIO_StructInit
 .text.GPIO_SetBits
                0x0800199c       0x20 /home/bj/workspace/eclipse/stm32/stm32f405rg_stdperiph_lib/Debug/libstm32f405rg_stdperiph_lib.a(stm32f4xx_gpio.o)
                0x0800199c                GPIO_SetBits
 .text.GPIO_ResetBits
                0x080019bc       0x20 /home/bj/workspace/eclipse/stm32/stm32f405rg_stdperiph_lib/Debug/libstm32f405rg_stdperiph_lib.a(stm32f4xx_gpio.o)
                0x080019bc                GPIO_ResetBits
 .text.GPIO_PinAFConfig
                0x080019dc       0x94 /home/bj/workspace/eclipse/stm32/stm32f405rg_stdperiph_lib/Debug/libstm32f405rg_stdperiph_lib.a(stm32f4xx_gpio.o)
                0x080019dc                GPIO_PinAFConfig
 .text.RCC_GetClocksFreq
                0x08001a70      0x154 /home/bj/workspace/eclipse/stm32/stm32f405rg_stdperiph_lib/Debug/libstm32f405rg_stdperiph_lib.a(stm32f4xx_rcc.o)
                0x08001a70                RCC_GetClocksFreq
 .text.RCC_AHB1PeriphClockCmd
                0x08001bc4       0x40 /home/bj/workspace/eclipse/stm32/stm32f405rg_stdperiph_lib/Debug/libstm32f405rg_stdperiph_lib.a(stm32f4xx_rcc.o)
                0x08001bc4                RCC_AHB1PeriphClockCmd
 .text.RCC_APB1PeriphClockCmd
                0x08001c04       0x40 /home/bj/workspace/eclipse/stm32/stm32f405rg_stdperiph_lib/Debug/libstm32f405rg_stdperiph_lib.a(stm32f4xx_rcc.o)
                0x08001c04                RCC_APB1PeriphClockCmd
 .text.RCC_APB2PeriphClockCmd
                0x08001c44       0x40 /home/bj/workspace/eclipse/stm32/stm32f405rg_stdperiph_lib/Debug/libstm32f405rg_stdperiph_lib.a(stm32f4xx_rcc.o)
                0x08001c44                RCC_APB2PeriphClockCmd
 .text.RCC_APB1PeriphResetCmd
                0x08001c84       0x40 /home/bj/workspace/eclipse/stm32/stm32f405rg_stdperiph_lib/Debug/libstm32f405rg_stdperiph_lib.a(stm32f4xx_rcc.o)
                0x08001c84                RCC_APB1PeriphResetCmd
 .text.RCC_APB2PeriphResetCmd
                0x08001cc4       0x40 /home/bj/workspace/eclipse/stm32/stm32f405rg_stdperiph_lib/Debug/libstm32f405rg_stdperiph_lib.a(stm32f4xx_rcc.o)
                0x08001cc4                RCC_APB2PeriphResetCmd
 .text.TIM_TimeBaseInit
                0x08001d04       0xd8 /home/bj/workspace/eclipse/stm32/stm32f405rg_stdperiph_lib/Debug/libstm32f405rg_stdperiph_lib.a(stm32f4xx_tim.o)
                0x08001d04                TIM_TimeBaseInit
 .text.TIM_ARRPreloadConfig
                0x08001ddc       0x40 /home/bj/workspace/eclipse/stm32/stm32f405rg_stdperiph_lib/Debug/libstm32f405rg_stdperiph_lib.a(stm32f4xx_tim.o)
                0x08001ddc                TIM_ARRPreloadConfig
 .text.TIM_Cmd  0x08001e1c       0x40 /home/bj/workspace/eclipse/stm32/stm32f405rg_stdperiph_lib/Debug/libstm32f405rg_stdperiph_lib.a(stm32f4xx_tim.o)
                0x08001e1c                TIM_Cmd
 .text.TIM_OC1Init
                0x08001e5c       0xf4 /home/bj/workspace/eclipse/stm32/stm32f405rg_stdperiph_lib/Debug/libstm32f405rg_stdperiph_lib.a(stm32f4xx_tim.o)
                0x08001e5c                TIM_OC1Init
 .text.TIM_OC2Init
                0x08001f50      0x110 /home/bj/workspace/eclipse/stm32/stm32f405rg_stdperiph_lib/Debug/libstm32f405rg_stdperiph_lib.a(stm32f4xx_tim.o)
                0x08001f50                TIM_OC2Init
 .text.TIM_OC3Init
                0x08002060      0x10c /home/bj/workspace/eclipse/stm32/stm32f405rg_stdperiph_lib/Debug/libstm32f405rg_stdperiph_lib.a(stm32f4xx_tim.o)
                0x08002060                TIM_OC3Init
 .text.TIM_OC1PreloadConfig
                0x0800216c       0x38 /home/bj/workspace/eclipse/stm32/stm32f405rg_stdperiph_lib/Debug/libstm32f405rg_stdperiph_lib.a(stm32f4xx_tim.o)
                0x0800216c                TIM_OC1PreloadConfig
 .text.TIM_OC2PreloadConfig
                0x080021a4       0x3c /home/bj/workspace/eclipse/stm32/stm32f405rg_stdperiph_lib/Debug/libstm32f405rg_stdperiph_lib.a(stm32f4xx_tim.o)
                0x080021a4                TIM_OC2PreloadConfig
 .text.TIM_OC3PreloadConfig
                0x080021e0       0x38 /home/bj/workspace/eclipse/stm32/stm32f405rg_stdperiph_lib/Debug/libstm32f405rg_stdperiph_lib.a(stm32f4xx_tim.o)
                0x080021e0                TIM_OC3PreloadConfig
 .text.TIM_ITConfig
                0x08002218       0x48 /home/bj/workspace/eclipse/stm32/stm32f405rg_stdperiph_lib/Debug/libstm32f405rg_stdperiph_lib.a(stm32f4xx_tim.o)
                0x08002218                TIM_ITConfig
 .text.TIM_ClearFlag
                0x08002260       0x24 /home/bj/workspace/eclipse/stm32/stm32f405rg_stdperiph_lib/Debug/libstm32f405rg_stdperiph_lib.a(stm32f4xx_tim.o)
                0x08002260                TIM_ClearFlag
 .text.TIM_EncoderInterfaceConfig
                0x08002284       0x98 /home/bj/workspace/eclipse/stm32/stm32f405rg_stdperiph_lib/Debug/libstm32f405rg_stdperiph_lib.a(stm32f4xx_tim.o)
                0x08002284                TIM_EncoderInterfaceConfig
 .text.USART_DeInit
                0x0800231c      0x118 /home/bj/workspace/eclipse/stm32/stm32f405rg_stdperiph_lib/Debug/libstm32f405rg_stdperiph_lib.a(stm32f4xx_usart.o)
                0x0800231c                USART_DeInit
 .text.USART_Init
                0x08002434      0x174 /home/bj/workspace/eclipse/stm32/stm32f405rg_stdperiph_lib/Debug/libstm32f405rg_stdperiph_lib.a(stm32f4xx_usart.o)
                0x08002434                USART_Init
 .text.USART_StructInit
                0x080025a8       0x3c /home/bj/workspace/eclipse/stm32/stm32f405rg_stdperiph_lib/Debug/libstm32f405rg_stdperiph_lib.a(stm32f4xx_usart.o)
                0x080025a8                USART_StructInit
 .text.USART_Cmd
                0x080025e4       0x40 /home/bj/workspace/eclipse/stm32/stm32f405rg_stdperiph_lib/Debug/libstm32f405rg_stdperiph_lib.a(stm32f4xx_usart.o)
                0x080025e4                USART_Cmd
 .text.USART_DMACmd
                0x08002624       0x48 /home/bj/workspace/eclipse/stm32/stm32f405rg_stdperiph_lib/Debug/libstm32f405rg_stdperiph_lib.a(stm32f4xx_usart.o)
                0x08002624                USART_DMACmd
 .text.USART_ITConfig
                0x0800266c       0x90 /home/bj/workspace/eclipse/stm32/stm32f405rg_stdperiph_lib/Debug/libstm32f405rg_stdperiph_lib.a(stm32f4xx_usart.o)
                0x0800266c                USART_ITConfig
 .text.__errno  0x080026fc        0xc /home/bj/.p2/pool/plugins/fr.ac6.mcu.externaltools.arm-none.linux64_1.12.0.201611241417/tools/compiler/bin/../lib/gcc/arm-none-eabi/5.4.1/../../../../arm-none-eabi/lib/armv7e-m/fpu/libc.a(lib_a-errno.o)
                0x080026fc                __errno
 .text.__libc_init_array
                0x08002708       0x50 /home/bj/.p2/pool/plugins/fr.ac6.mcu.externaltools.arm-none.linux64_1.12.0.201611241417/tools/compiler/bin/../lib/gcc/arm-none-eabi/5.4.1/../../../../arm-none-eabi/lib/armv7e-m/fpu/libc.a(lib_a-init.o)
                0x08002708                __libc_init_array
 .text.malloc   0x08002758       0x10 /home/bj/.p2/pool/plugins/fr.ac6.mcu.externaltools.arm-none.linux64_1.12.0.201611241417/tools/compiler/bin/../lib/gcc/arm-none-eabi/5.4.1/../../../../arm-none-eabi/lib/armv7e-m/fpu/libc.a(lib_a-malloc.o)
                0x08002758                malloc
 .text.free     0x08002768       0x10 /home/bj/.p2/pool/plugins/fr.ac6.mcu.externaltools.arm-none.linux64_1.12.0.201611241417/tools/compiler/bin/../lib/gcc/arm-none-eabi/5.4.1/../../../../arm-none-eabi/lib/armv7e-m/fpu/libc.a(lib_a-malloc.o)
                0x08002768                free
 .text._malloc_r
                0x08002778      0x570 /home/bj/.p2/pool/plugins/fr.ac6.mcu.externaltools.arm-none.linux64_1.12.0.201611241417/tools/compiler/bin/../lib/gcc/arm-none-eabi/5.4.1/../../../../arm-none-eabi/lib/armv7e-m/fpu/libc.a(lib_a-mallocr.o)
                0x08002778                _malloc_r
 .text.__malloc_lock
                0x08002ce8        0x4 /home/bj/.p2/pool/plugins/fr.ac6.mcu.externaltools.arm-none.linux64_1.12.0.201611241417/tools/compiler/bin/../lib/gcc/arm-none-eabi/5.4.1/../../../../arm-none-eabi/lib/armv7e-m/fpu/libc.a(lib_a-mlock.o)
                0x08002ce8                __malloc_lock
 .text.__malloc_unlock
                0x08002cec        0x4 /home/bj/.p2/pool/plugins/fr.ac6.mcu.externaltools.arm-none.linux64_1.12.0.201611241417/tools/compiler/bin/../lib/gcc/arm-none-eabi/5.4.1/../../../../arm-none-eabi/lib/armv7e-m/fpu/libc.a(lib_a-mlock.o)
                0x08002cec                __malloc_unlock
 .text._sbrk_r  0x08002cf0       0x24 /home/bj/.p2/pool/plugins/fr.ac6.mcu.externaltools.arm-none.linux64_1.12.0.201611241417/tools/compiler/bin/../lib/gcc/arm-none-eabi/5.4.1/../../../../arm-none-eabi/lib/armv7e-m/fpu/libc.a(lib_a-sbrkr.o)
                0x08002cf0                _sbrk_r
 .text.startup.register_fini
                0x08002d14       0x14 /home/bj/.p2/pool/plugins/fr.ac6.mcu.externaltools.arm-none.linux64_1.12.0.201611241417/tools/compiler/bin/../lib/gcc/arm-none-eabi/5.4.1/../../../../arm-none-eabi/lib/armv7e-m/fpu/libc.a(lib_a-__call_atexit.o)
 .text.atexit   0x08002d28        0xc /home/bj/.p2/pool/plugins/fr.ac6.mcu.externaltools.arm-none.linux64_1.12.0.201611241417/tools/compiler/bin/../lib/gcc/arm-none-eabi/5.4.1/../../../../arm-none-eabi/lib/armv7e-m/fpu/libc.a(lib_a-atexit.o)
                0x08002d28                atexit
 .text.__libc_fini_array
                0x08002d34       0x28 /home/bj/.p2/pool/plugins/fr.ac6.mcu.externaltools.arm-none.linux64_1.12.0.201611241417/tools/compiler/bin/../lib/gcc/arm-none-eabi/5.4.1/../../../../arm-none-eabi/lib/armv7e-m/fpu/libc.a(lib_a-fini.o)
                0x08002d34                __libc_fini_array
 .text._malloc_trim_r
                0x08002d5c       0x9c /home/bj/.p2/pool/plugins/fr.ac6.mcu.externaltools.arm-none.linux64_1.12.0.201611241417/tools/compiler/bin/../lib/gcc/arm-none-eabi/5.4.1/../../../../arm-none-eabi/lib/armv7e-m/fpu/libc.a(lib_a-freer.o)
                0x08002d5c                _malloc_trim_r
 .text._free_r  0x08002df8      0x1d0 /home/bj/.p2/pool/plugins/fr.ac6.mcu.externaltools.arm-none.linux64_1.12.0.201611241417/tools/compiler/bin/../lib/gcc/arm-none-eabi/5.4.1/../../../../arm-none-eabi/lib/armv7e-m/fpu/libc.a(lib_a-freer.o)
                0x08002df8                _free_r
 .text.__register_exitproc
                0x08002fc8       0xa4 /home/bj/.p2/pool/plugins/fr.ac6.mcu.externaltools.arm-none.linux64_1.12.0.201611241417/tools/compiler/bin/../lib/gcc/arm-none-eabi/5.4.1/../../../../arm-none-eabi/lib/armv7e-m/fpu/libc.a(lib_a-__atexit.o)
                0x08002fc8                __register_exitproc
 *(.glue_7)
 .glue_7        0x0800306c        0x0 linker stubs
 *(.glue_7t)
 .glue_7t       0x0800306c        0x0 linker stubs
 *(.eh_frame)
 .eh_frame      0x0800306c        0x0 /home/bj/.p2/pool/plugins/fr.ac6.mcu.externaltools.arm-none.linux64_1.12.0.201611241417/tools/compiler/bin/../lib/gcc/arm-none-eabi/5.4.1/armv7e-m/fpu/crtbegin.o
 *(.init)
 .init          0x0800306c        0x4 /home/bj/.p2/pool/plugins/fr.ac6.mcu.externaltools.arm-none.linux64_1.12.0.201611241417/tools/compiler/bin/../lib/gcc/arm-none-eabi/5.4.1/armv7e-m/fpu/crti.o
                0x0800306c                _init
 .init          0x08003070        0x8 /home/bj/.p2/pool/plugins/fr.ac6.mcu.externaltools.arm-none.linux64_1.12.0.201611241417/tools/compiler/bin/../lib/gcc/arm-none-eabi/5.4.1/armv7e-m/fpu/crtn.o
 *(.fini)
 .fini          0x08003078        0x4 /home/bj/.p2/pool/plugins/fr.ac6.mcu.externaltools.arm-none.linux64_1.12.0.201611241417/tools/compiler/bin/../lib/gcc/arm-none-eabi/5.4.1/armv7e-m/fpu/crti.o
                0x08003078                _fini
 .fini          0x0800307c        0x8 /home/bj/.p2/pool/plugins/fr.ac6.mcu.externaltools.arm-none.linux64_1.12.0.201611241417/tools/compiler/bin/../lib/gcc/arm-none-eabi/5.4.1/armv7e-m/fpu/crtn.o
                0x08003084                . = ALIGN (0x4)
                0x08003084                _etext = .

.vfp11_veneer   0x08003084        0x0
 .vfp11_veneer  0x08003084        0x0 linker stubs

.v4_bx          0x08003084        0x0
 .v4_bx         0x08003084        0x0 linker stubs

.iplt           0x08003084        0x0
 .iplt          0x08003084        0x0 /home/bj/.p2/pool/plugins/fr.ac6.mcu.externaltools.arm-none.linux64_1.12.0.201611241417/tools/compiler/bin/../lib/gcc/arm-none-eabi/5.4.1/armv7e-m/fpu/crtbegin.o

.rodata         0x08003084      0x20c
                0x08003084                . = ALIGN (0x4)
 *(.rodata)
 .rodata        0x08003084      0x202 src/crc16.o
                0x08003084                CRC16Table
                0x08003284                INIT_CRC16
 *(.rodata*)
 *fill*         0x08003286        0x2 
 .rodata.str1.4
                0x08003288        0x4 /home/bj/.p2/pool/plugins/fr.ac6.mcu.externaltools.arm-none.linux64_1.12.0.201611241417/tools/compiler/bin/../lib/gcc/arm-none-eabi/5.4.1/../../../../arm-none-eabi/lib/armv7e-m/fpu/libc.a(lib_a-impure.o)
                                  0x2 (size before relaxing)
 .rodata._global_impure_ptr
                0x0800328c        0x4 /home/bj/.p2/pool/plugins/fr.ac6.mcu.externaltools.arm-none.linux64_1.12.0.201611241417/tools/compiler/bin/../lib/gcc/arm-none-eabi/5.4.1/../../../../arm-none-eabi/lib/armv7e-m/fpu/libc.a(lib_a-impure.o)
                0x0800328c                _global_impure_ptr
                0x08003290                . = ALIGN (0x4)

.rel.dyn        0x08003290        0x0
 .rel.iplt      0x08003290        0x0 /home/bj/.p2/pool/plugins/fr.ac6.mcu.externaltools.arm-none.linux64_1.12.0.201611241417/tools/compiler/bin/../lib/gcc/arm-none-eabi/5.4.1/armv7e-m/fpu/crtbegin.o

.ARM.extab      0x08003290        0x0
                0x08003290                . = ALIGN (0x4)
 *(.ARM.extab* .gnu.linkonce.armextab.*)
                0x08003290                . = ALIGN (0x4)

.ARM            0x08003290        0x0
                0x08003290                . = ALIGN (0x4)
                0x08003290                __exidx_start = .
 *(.ARM.exidx*)
                0x08003290                __exidx_end = .
                0x08003290                . = ALIGN (0x4)

.preinit_array  0x08003290        0x0
                0x08003290                . = ALIGN (0x4)
                0x08003290                PROVIDE (__preinit_array_start, .)
 *(.preinit_array*)
                0x08003290                PROVIDE (__preinit_array_end, .)
                0x08003290                . = ALIGN (0x4)

.init_array     0x08003290        0x8
                0x08003290                . = ALIGN (0x4)
                0x08003290                PROVIDE (__init_array_start, .)
 *(SORT(.init_array.*))
 .init_array.00000
                0x08003290        0x4 /home/bj/.p2/pool/plugins/fr.ac6.mcu.externaltools.arm-none.linux64_1.12.0.201611241417/tools/compiler/bin/../lib/gcc/arm-none-eabi/5.4.1/../../../../arm-none-eabi/lib/armv7e-m/fpu/libc.a(lib_a-__call_atexit.o)
 *(.init_array*)
 .init_array    0x08003294        0x4 /home/bj/.p2/pool/plugins/fr.ac6.mcu.externaltools.arm-none.linux64_1.12.0.201611241417/tools/compiler/bin/../lib/gcc/arm-none-eabi/5.4.1/armv7e-m/fpu/crtbegin.o
                0x08003298                PROVIDE (__init_array_end, .)
                0x08003298                . = ALIGN (0x4)

.fini_array     0x08003298        0x4
                0x08003298                . = ALIGN (0x4)
                0x08003298                PROVIDE (__fini_array_start, .)
 *(SORT(.fini_array.*))
 *(.fini_array*)
 .fini_array    0x08003298        0x4 /home/bj/.p2/pool/plugins/fr.ac6.mcu.externaltools.arm-none.linux64_1.12.0.201611241417/tools/compiler/bin/../lib/gcc/arm-none-eabi/5.4.1/armv7e-m/fpu/crtbegin.o
                0x0800329c                PROVIDE (__fini_array_end, .)
                0x0800329c                . = ALIGN (0x4)
                0x0800329c                _sidata = LOADADDR (.data)

.data           0x20000000      0x84c load address 0x0800329c
                0x20000000                . = ALIGN (0x4)
                0x20000000                _sdata = .
 *(.data)
 .data          0x20000000       0x10 /home/bj/workspace/eclipse/stm32/stm32f405rg_stdperiph_lib/Debug/libstm32f405rg_stdperiph_lib.a(stm32f4xx_rcc.o)
 *(.data*)
 .data.impure_data
                0x20000010      0x428 /home/bj/.p2/pool/plugins/fr.ac6.mcu.externaltools.arm-none.linux64_1.12.0.201611241417/tools/compiler/bin/../lib/gcc/arm-none-eabi/5.4.1/../../../../arm-none-eabi/lib/armv7e-m/fpu/libc.a(lib_a-impure.o)
 .data._impure_ptr
                0x20000438        0x4 /home/bj/.p2/pool/plugins/fr.ac6.mcu.externaltools.arm-none.linux64_1.12.0.201611241417/tools/compiler/bin/../lib/gcc/arm-none-eabi/5.4.1/../../../../arm-none-eabi/lib/armv7e-m/fpu/libc.a(lib_a-impure.o)
                0x20000438                _impure_ptr
 .data.__malloc_av_
                0x2000043c      0x408 /home/bj/.p2/pool/plugins/fr.ac6.mcu.externaltools.arm-none.linux64_1.12.0.201611241417/tools/compiler/bin/../lib/gcc/arm-none-eabi/5.4.1/../../../../arm-none-eabi/lib/armv7e-m/fpu/libc.a(lib_a-mallocr.o)
                0x2000043c                __malloc_av_
 .data.__malloc_trim_threshold
                0x20000844        0x4 /home/bj/.p2/pool/plugins/fr.ac6.mcu.externaltools.arm-none.linux64_1.12.0.201611241417/tools/compiler/bin/../lib/gcc/arm-none-eabi/5.4.1/../../../../arm-none-eabi/lib/armv7e-m/fpu/libc.a(lib_a-mallocr.o)
                0x20000844                __malloc_trim_threshold
 .data.__malloc_sbrk_base
                0x20000848        0x4 /home/bj/.p2/pool/plugins/fr.ac6.mcu.externaltools.arm-none.linux64_1.12.0.201611241417/tools/compiler/bin/../lib/gcc/arm-none-eabi/5.4.1/../../../../arm-none-eabi/lib/armv7e-m/fpu/libc.a(lib_a-mallocr.o)
                0x20000848                __malloc_sbrk_base
                0x2000084c                . = ALIGN (0x4)
                0x2000084c                _edata = .

.jcr            0x2000084c        0x0 load address 0x08003ae8
 .jcr           0x2000084c        0x0 /home/bj/.p2/pool/plugins/fr.ac6.mcu.externaltools.arm-none.linux64_1.12.0.201611241417/tools/compiler/bin/../lib/gcc/arm-none-eabi/5.4.1/armv7e-m/fpu/crtbegin.o

.igot.plt       0x2000084c        0x0 load address 0x08003ae8
 .igot.plt      0x2000084c        0x0 /home/bj/.p2/pool/plugins/fr.ac6.mcu.externaltools.arm-none.linux64_1.12.0.201611241417/tools/compiler/bin/../lib/gcc/arm-none-eabi/5.4.1/armv7e-m/fpu/crtbegin.o
                0x2000084c                . = ALIGN (0x4)

.bss            0x2000084c      0x280 load address 0x08003ae8
                0x2000084c                _sbss = .
                0x2000084c                __bss_start__ = _sbss
 *(.bss)
 .bss           0x2000084c       0x1c /home/bj/.p2/pool/plugins/fr.ac6.mcu.externaltools.arm-none.linux64_1.12.0.201611241417/tools/compiler/bin/../lib/gcc/arm-none-eabi/5.4.1/armv7e-m/fpu/crtbegin.o
 .bss           0x20000868      0x1b0 src/can2_task.o
                0x20000868                CM1Encoder
                0x200008b0                CM2Encoder
                0x200008f8                CM3Encoder
                0x20000940                CM4Encoder
                0x20000988                GMYEncoder
                0x200009d0                GMPEncoder
 .bss           0x20000a18        0x8 src/syscalls.o
                0x20000a18                __env
 .bss           0x20000a20        0x4 src/usart3.o
                0x20000a20                usart3_tx_fifo
 *(.bss*)
 .bss.__malloc_max_total_mem
                0x20000a24        0x4 /home/bj/.p2/pool/plugins/fr.ac6.mcu.externaltools.arm-none.linux64_1.12.0.201611241417/tools/compiler/bin/../lib/gcc/arm-none-eabi/5.4.1/../../../../arm-none-eabi/lib/armv7e-m/fpu/libc.a(lib_a-mallocr.o)
                0x20000a24                __malloc_max_total_mem
 .bss.__malloc_max_sbrked_mem
                0x20000a28        0x4 /home/bj/.p2/pool/plugins/fr.ac6.mcu.externaltools.arm-none.linux64_1.12.0.201611241417/tools/compiler/bin/../lib/gcc/arm-none-eabi/5.4.1/../../../../arm-none-eabi/lib/armv7e-m/fpu/libc.a(lib_a-mallocr.o)
                0x20000a28                __malloc_max_sbrked_mem
 .bss.__malloc_top_pad
                0x20000a2c        0x4 /home/bj/.p2/pool/plugins/fr.ac6.mcu.externaltools.arm-none.linux64_1.12.0.201611241417/tools/compiler/bin/../lib/gcc/arm-none-eabi/5.4.1/../../../../arm-none-eabi/lib/armv7e-m/fpu/libc.a(lib_a-mallocr.o)
                0x20000a2c                __malloc_top_pad
 .bss.__malloc_current_mallinfo
                0x20000a30       0x28 /home/bj/.p2/pool/plugins/fr.ac6.mcu.externaltools.arm-none.linux64_1.12.0.201611241417/tools/compiler/bin/../lib/gcc/arm-none-eabi/5.4.1/../../../../arm-none-eabi/lib/armv7e-m/fpu/libc.a(lib_a-mallocr.o)
                0x20000a30                __malloc_current_mallinfo
 *(COMMON)
 COMMON         0x20000a58       0x10 src/odom_task.o
                0x20000a58                odom
 COMMON         0x20000a68       0x60 src/usart1.o
                0x20000a68                dbus
                0x20000a80                usart1_dma_rx_buf
 COMMON         0x20000ac8        0x4 /home/bj/.p2/pool/plugins/fr.ac6.mcu.externaltools.arm-none.linux64_1.12.0.201611241417/tools/compiler/bin/../lib/gcc/arm-none-eabi/5.4.1/../../../../arm-none-eabi/lib/armv7e-m/fpu/libc.a(lib_a-reent.o)
                0x20000ac8                errno
                0x20000acc                . = ALIGN (0x4)
                0x20000acc                _ebss = .
                0x20000acc                __bss_end__ = _ebss

._user_heap_stack
                0x20000acc      0x404 load address 0x08003ae8
                0x20000ad0                . = ALIGN (0x8)
 *fill*         0x20000acc        0x4 
                0x20000ad0                PROVIDE (end, .)
                [!provide]                PROVIDE (_end, .)
                0x20000ad0                . = (. + _Min_Heap_Size)
                0x20000ed0                . = (. + _Min_Stack_Size)
 *fill*         0x20000ad0      0x400 
                0x20000ed0                . = ALIGN (0x8)

/DISCARD/
 libc.a(*)
 libm.a(*)
 libgcc.a(*)

.ARM.attributes
                0x00000000       0x30
 *(.ARM.attributes)
 .ARM.attributes
                0x00000000       0x22 /home/bj/.p2/pool/plugins/fr.ac6.mcu.externaltools.arm-none.linux64_1.12.0.201611241417/tools/compiler/bin/../lib/gcc/arm-none-eabi/5.4.1/armv7e-m/fpu/crti.o
 .ARM.attributes
                0x00000022       0x34 /home/bj/.p2/pool/plugins/fr.ac6.mcu.externaltools.arm-none.linux64_1.12.0.201611241417/tools/compiler/bin/../lib/gcc/arm-none-eabi/5.4.1/armv7e-m/fpu/crtbegin.o
 .ARM.attributes
                0x00000056       0x39 src/bsp.o
 .ARM.attributes
                0x0000008f       0x39 src/can1.o
 .ARM.attributes
                0x000000c8       0x39 src/can2.o
 .ARM.attributes
                0x00000101       0x39 src/can2_task.o
 .ARM.attributes
                0x0000013a       0x39 src/crc16.o
 .ARM.attributes
                0x00000173       0x39 src/fifo.o
 .ARM.attributes
                0x000001ac       0x39 src/led.o
 .ARM.attributes
                0x000001e5       0x39 src/main.o
 .ARM.attributes
                0x0000021e       0x39 src/mecanum.o
 .ARM.attributes
                0x00000257       0x39 src/odom_task.o
 .ARM.attributes
                0x00000290       0x39 src/pwm.o
 .ARM.attributes
                0x000002c9       0x39 src/quad_encoder.o
 .ARM.attributes
                0x00000302       0x39 src/syscalls.o
 .ARM.attributes
                0x0000033b       0x39 src/system_stm32f4xx.o
 .ARM.attributes
                0x00000374       0x39 src/timer.o
 .ARM.attributes
                0x000003ad       0x39 src/usart1.o
 .ARM.attributes
                0x000003e6       0x39 src/usart3.o
 .ARM.attributes
                0x0000041f       0x25 startup/startup_stm32.o
 .ARM.attributes
                0x00000444       0x39 /home/bj/workspace/eclipse/stm32/stm32f405rg_stdperiph_lib/Debug/libstm32f405rg_stdperiph_lib.a(misc.o)
 .ARM.attributes
                0x0000047d       0x39 /home/bj/workspace/eclipse/stm32/stm32f405rg_stdperiph_lib/Debug/libstm32f405rg_stdperiph_lib.a(stm32f4xx_can.o)
 .ARM.attributes
                0x000004b6       0x39 /home/bj/workspace/eclipse/stm32/stm32f405rg_stdperiph_lib/Debug/libstm32f405rg_stdperiph_lib.a(stm32f4xx_dma.o)
 .ARM.attributes
                0x000004ef       0x39 /home/bj/workspace/eclipse/stm32/stm32f405rg_stdperiph_lib/Debug/libstm32f405rg_stdperiph_lib.a(stm32f4xx_gpio.o)
 .ARM.attributes
                0x00000528       0x39 /home/bj/workspace/eclipse/stm32/stm32f405rg_stdperiph_lib/Debug/libstm32f405rg_stdperiph_lib.a(stm32f4xx_rcc.o)
 .ARM.attributes
                0x00000561       0x39 /home/bj/workspace/eclipse/stm32/stm32f405rg_stdperiph_lib/Debug/libstm32f405rg_stdperiph_lib.a(stm32f4xx_tim.o)
 .ARM.attributes
                0x0000059a       0x39 /home/bj/workspace/eclipse/stm32/stm32f405rg_stdperiph_lib/Debug/libstm32f405rg_stdperiph_lib.a(stm32f4xx_usart.o)
 .ARM.attributes
                0x000005d3       0x34 /home/bj/.p2/pool/plugins/fr.ac6.mcu.externaltools.arm-none.linux64_1.12.0.201611241417/tools/compiler/bin/../lib/gcc/arm-none-eabi/5.4.1/../../../../arm-none-eabi/lib/armv7e-m/fpu/libc.a(lib_a-errno.o)
 .ARM.attributes
                0x00000607       0x34 /home/bj/.p2/pool/plugins/fr.ac6.mcu.externaltools.arm-none.linux64_1.12.0.201611241417/tools/compiler/bin/../lib/gcc/arm-none-eabi/5.4.1/../../../../arm-none-eabi/lib/armv7e-m/fpu/libc.a(lib_a-impure.o)
 .ARM.attributes
                0x0000063b       0x34 /home/bj/.p2/pool/plugins/fr.ac6.mcu.externaltools.arm-none.linux64_1.12.0.201611241417/tools/compiler/bin/../lib/gcc/arm-none-eabi/5.4.1/../../../../arm-none-eabi/lib/armv7e-m/fpu/libc.a(lib_a-init.o)
 .ARM.attributes
                0x0000066f       0x34 /home/bj/.p2/pool/plugins/fr.ac6.mcu.externaltools.arm-none.linux64_1.12.0.201611241417/tools/compiler/bin/../lib/gcc/arm-none-eabi/5.4.1/../../../../arm-none-eabi/lib/armv7e-m/fpu/libc.a(lib_a-malloc.o)
 .ARM.attributes
                0x000006a3       0x34 /home/bj/.p2/pool/plugins/fr.ac6.mcu.externaltools.arm-none.linux64_1.12.0.201611241417/tools/compiler/bin/../lib/gcc/arm-none-eabi/5.4.1/../../../../arm-none-eabi/lib/armv7e-m/fpu/libc.a(lib_a-mallocr.o)
 .ARM.attributes
                0x000006d7       0x34 /home/bj/.p2/pool/plugins/fr.ac6.mcu.externaltools.arm-none.linux64_1.12.0.201611241417/tools/compiler/bin/../lib/gcc/arm-none-eabi/5.4.1/../../../../arm-none-eabi/lib/armv7e-m/fpu/libc.a(lib_a-mlock.o)
 .ARM.attributes
                0x0000070b       0x34 /home/bj/.p2/pool/plugins/fr.ac6.mcu.externaltools.arm-none.linux64_1.12.0.201611241417/tools/compiler/bin/../lib/gcc/arm-none-eabi/5.4.1/../../../../arm-none-eabi/lib/armv7e-m/fpu/libc.a(lib_a-sbrkr.o)
 .ARM.attributes
                0x0000073f       0x34 /home/bj/.p2/pool/plugins/fr.ac6.mcu.externaltools.arm-none.linux64_1.12.0.201611241417/tools/compiler/bin/../lib/gcc/arm-none-eabi/5.4.1/../../../../arm-none-eabi/lib/armv7e-m/fpu/libc.a(lib_a-__call_atexit.o)
 .ARM.attributes
                0x00000773       0x34 /home/bj/.p2/pool/plugins/fr.ac6.mcu.externaltools.arm-none.linux64_1.12.0.201611241417/tools/compiler/bin/../lib/gcc/arm-none-eabi/5.4.1/../../../../arm-none-eabi/lib/armv7e-m/fpu/libc.a(lib_a-atexit.o)
 .ARM.attributes
                0x000007a7       0x34 /home/bj/.p2/pool/plugins/fr.ac6.mcu.externaltools.arm-none.linux64_1.12.0.201611241417/tools/compiler/bin/../lib/gcc/arm-none-eabi/5.4.1/../../../../arm-none-eabi/lib/armv7e-m/fpu/libc.a(lib_a-fini.o)
 .ARM.attributes
                0x000007db       0x34 /home/bj/.p2/pool/plugins/fr.ac6.mcu.externaltools.arm-none.linux64_1.12.0.201611241417/tools/compiler/bin/../lib/gcc/arm-none-eabi/5.4.1/../../../../arm-none-eabi/lib/armv7e-m/fpu/libc.a(lib_a-freer.o)
 .ARM.attributes
                0x0000080f       0x34 /home/bj/.p2/pool/plugins/fr.ac6.mcu.externaltools.arm-none.linux64_1.12.0.201611241417/tools/compiler/bin/../lib/gcc/arm-none-eabi/5.4.1/../../../../arm-none-eabi/lib/armv7e-m/fpu/libc.a(lib_a-reent.o)
 .ARM.attributes
                0x00000843       0x34 /home/bj/.p2/pool/plugins/fr.ac6.mcu.externaltools.arm-none.linux64_1.12.0.201611241417/tools/compiler/bin/../lib/gcc/arm-none-eabi/5.4.1/../../../../arm-none-eabi/lib/armv7e-m/fpu/libc.a(lib_a-__atexit.o)
 .ARM.attributes
                0x00000877       0x22 /home/bj/.p2/pool/plugins/fr.ac6.mcu.externaltools.arm-none.linux64_1.12.0.201611241417/tools/compiler/bin/../lib/gcc/arm-none-eabi/5.4.1/armv7e-m/fpu/crtn.o
OUTPUT(car.elf elf32-littlearm)

.debug_info     0x00000000     0xb159
 .debug_info    0x00000000      0x1ae src/bsp.o
 .debug_info    0x000001ae      0x9d9 src/can1.o
 .debug_info    0x00000b87      0x9d9 src/can2.o
 .debug_info    0x00001560      0x2cb src/can2_task.o
 .debug_info    0x0000182b      0x1c7 src/crc16.o
 .debug_info    0x000019f2      0x2a1 src/fifo.o
 .debug_info    0x00001c93      0x2d9 src/led.o
 .debug_info    0x00001f6c      0x2ed src/main.o
 .debug_info    0x00002259       0xd9 src/mecanum.o
 .debug_info    0x00002332      0x2ed src/odom_task.o
 .debug_info    0x0000261f      0x5b6 src/pwm.o
 .debug_info    0x00002bd5      0x4d7 src/quad_encoder.o
 .debug_info    0x000030ac      0x6ca src/syscalls.o
 .debug_info    0x00003776      0x611 src/system_stm32f4xx.o
 .debug_info    0x00003d87      0x678 src/timer.o
 .debug_info    0x000043ff      0x9e4 src/usart1.o
 .debug_info    0x00004de3      0xff1 src/usart3.o
 .debug_info    0x00005dd4       0x6a startup/startup_stm32.o
 .debug_info    0x00005e3e      0x55e /home/bj/workspace/eclipse/stm32/stm32f405rg_stdperiph_lib/Debug/libstm32f405rg_stdperiph_lib.a(misc.o)
 .debug_info    0x0000639c      0xbac /home/bj/workspace/eclipse/stm32/stm32f405rg_stdperiph_lib/Debug/libstm32f405rg_stdperiph_lib.a(stm32f4xx_can.o)
 .debug_info    0x00006f48      0x749 /home/bj/workspace/eclipse/stm32/stm32f405rg_stdperiph_lib/Debug/libstm32f405rg_stdperiph_lib.a(stm32f4xx_dma.o)
 .debug_info    0x00007691      0x625 /home/bj/workspace/eclipse/stm32/stm32f405rg_stdperiph_lib/Debug/libstm32f405rg_stdperiph_lib.a(stm32f4xx_gpio.o)
 .debug_info    0x00007cb6      0xe60 /home/bj/workspace/eclipse/stm32/stm32f405rg_stdperiph_lib/Debug/libstm32f405rg_stdperiph_lib.a(stm32f4xx_rcc.o)
 .debug_info    0x00008b16     0x1c71 /home/bj/workspace/eclipse/stm32/stm32f405rg_stdperiph_lib/Debug/libstm32f405rg_stdperiph_lib.a(stm32f4xx_tim.o)
 .debug_info    0x0000a787      0x9d2 /home/bj/workspace/eclipse/stm32/stm32f405rg_stdperiph_lib/Debug/libstm32f405rg_stdperiph_lib.a(stm32f4xx_usart.o)

.debug_abbrev   0x00000000     0x1edf
 .debug_abbrev  0x00000000       0xb4 src/bsp.o
 .debug_abbrev  0x000000b4      0x19d src/can1.o
 .debug_abbrev  0x00000251      0x19d src/can2.o
 .debug_abbrev  0x000003ee       0xe9 src/can2_task.o
 .debug_abbrev  0x000004d7       0xc3 src/crc16.o
 .debug_abbrev  0x0000059a       0xe7 src/fifo.o
 .debug_abbrev  0x00000681      0x108 src/led.o
 .debug_abbrev  0x00000789       0xa4 src/main.o
 .debug_abbrev  0x0000082d       0x95 src/mecanum.o
 .debug_abbrev  0x000008c2      0x113 src/odom_task.o
 .debug_abbrev  0x000009d5      0x117 src/pwm.o
 .debug_abbrev  0x00000aec      0x108 src/quad_encoder.o
 .debug_abbrev  0x00000bf4      0x177 src/syscalls.o
 .debug_abbrev  0x00000d6b      0x13d src/system_stm32f4xx.o
 .debug_abbrev  0x00000ea8      0x131 src/timer.o
 .debug_abbrev  0x00000fd9      0x197 src/usart1.o
 .debug_abbrev  0x00001170      0x264 src/usart3.o
 .debug_abbrev  0x000013d4       0x12 startup/startup_stm32.o
 .debug_abbrev  0x000013e6      0x14c /home/bj/workspace/eclipse/stm32/stm32f405rg_stdperiph_lib/Debug/libstm32f405rg_stdperiph_lib.a(misc.o)
 .debug_abbrev  0x00001532      0x1fa /home/bj/workspace/eclipse/stm32/stm32f405rg_stdperiph_lib/Debug/libstm32f405rg_stdperiph_lib.a(stm32f4xx_can.o)
 .debug_abbrev  0x0000172c      0x15c /home/bj/workspace/eclipse/stm32/stm32f405rg_stdperiph_lib/Debug/libstm32f405rg_stdperiph_lib.a(stm32f4xx_dma.o)
 .debug_abbrev  0x00001888      0x1ac /home/bj/workspace/eclipse/stm32/stm32f405rg_stdperiph_lib/Debug/libstm32f405rg_stdperiph_lib.a(stm32f4xx_gpio.o)
 .debug_abbrev  0x00001a34      0x1c1 /home/bj/workspace/eclipse/stm32/stm32f405rg_stdperiph_lib/Debug/libstm32f405rg_stdperiph_lib.a(stm32f4xx_rcc.o)
 .debug_abbrev  0x00001bf5      0x18e /home/bj/workspace/eclipse/stm32/stm32f405rg_stdperiph_lib/Debug/libstm32f405rg_stdperiph_lib.a(stm32f4xx_tim.o)
 .debug_abbrev  0x00001d83      0x15c /home/bj/workspace/eclipse/stm32/stm32f405rg_stdperiph_lib/Debug/libstm32f405rg_stdperiph_lib.a(stm32f4xx_usart.o)

.debug_aranges  0x00000000      0xbb8
 .debug_aranges
                0x00000000       0x20 src/bsp.o
 .debug_aranges
                0x00000020       0x30 src/can1.o
 .debug_aranges
                0x00000050       0x30 src/can2.o
 .debug_aranges
                0x00000080       0x20 src/can2_task.o
 .debug_aranges
                0x000000a0       0x30 src/crc16.o
 .debug_aranges
                0x000000d0       0x60 src/fifo.o
 .debug_aranges
                0x00000130       0x20 src/led.o
 .debug_aranges
                0x00000150       0x20 src/main.o
 .debug_aranges
                0x00000170       0x28 src/mecanum.o
 .debug_aranges
                0x00000198       0x20 src/odom_task.o
 .debug_aranges
                0x000001b8       0x20 src/pwm.o
 .debug_aranges
                0x000001d8       0x20 src/quad_encoder.o
 .debug_aranges
                0x000001f8       0xb0 src/syscalls.o
 .debug_aranges
                0x000002a8       0x30 src/system_stm32f4xx.o
 .debug_aranges
                0x000002d8       0x40 src/timer.o
 .debug_aranges
                0x00000318       0x28 src/usart1.o
 .debug_aranges
                0x00000340       0x40 src/usart3.o
 .debug_aranges
                0x00000380       0x28 startup/startup_stm32.o
 .debug_aranges
                0x000003a8       0x40 /home/bj/workspace/eclipse/stm32/stm32f405rg_stdperiph_lib/Debug/libstm32f405rg_stdperiph_lib.a(misc.o)
 .debug_aranges
                0x000003e8       0xe0 /home/bj/workspace/eclipse/stm32/stm32f405rg_stdperiph_lib/Debug/libstm32f405rg_stdperiph_lib.a(stm32f4xx_can.o)
 .debug_aranges
                0x000004c8       0xb0 /home/bj/workspace/eclipse/stm32/stm32f405rg_stdperiph_lib/Debug/libstm32f405rg_stdperiph_lib.a(stm32f4xx_dma.o)
 .debug_aranges
                0x00000578       0x88 /home/bj/workspace/eclipse/stm32/stm32f405rg_stdperiph_lib/Debug/libstm32f405rg_stdperiph_lib.a(stm32f4xx_gpio.o)
 .debug_aranges
                0x00000600      0x1c0 /home/bj/workspace/eclipse/stm32/stm32f405rg_stdperiph_lib/Debug/libstm32f405rg_stdperiph_lib.a(stm32f4xx_rcc.o)
 .debug_aranges
                0x000007c0      0x2f8 /home/bj/workspace/eclipse/stm32/stm32f405rg_stdperiph_lib/Debug/libstm32f405rg_stdperiph_lib.a(stm32f4xx_tim.o)
 .debug_aranges
                0x00000ab8      0x100 /home/bj/workspace/eclipse/stm32/stm32f405rg_stdperiph_lib/Debug/libstm32f405rg_stdperiph_lib.a(stm32f4xx_usart.o)

.debug_ranges   0x00000000      0xa30
 .debug_ranges  0x00000000       0x10 src/bsp.o
 .debug_ranges  0x00000010       0x20 src/can1.o
 .debug_ranges  0x00000030       0x20 src/can2.o
 .debug_ranges  0x00000050       0x10 src/can2_task.o
 .debug_ranges  0x00000060       0x20 src/crc16.o
 .debug_ranges  0x00000080       0x50 src/fifo.o
 .debug_ranges  0x000000d0       0x10 src/led.o
 .debug_ranges  0x000000e0       0x10 src/main.o
 .debug_ranges  0x000000f0       0x18 src/mecanum.o
 .debug_ranges  0x00000108       0x10 src/odom_task.o
 .debug_ranges  0x00000118       0x10 src/pwm.o
 .debug_ranges  0x00000128       0x10 src/quad_encoder.o
 .debug_ranges  0x00000138       0xa0 src/syscalls.o
 .debug_ranges  0x000001d8       0x20 src/system_stm32f4xx.o
 .debug_ranges  0x000001f8       0x30 src/timer.o
 .debug_ranges  0x00000228       0x18 src/usart1.o
 .debug_ranges  0x00000240       0x30 src/usart3.o
 .debug_ranges  0x00000270       0x20 startup/startup_stm32.o
 .debug_ranges  0x00000290       0x30 /home/bj/workspace/eclipse/stm32/stm32f405rg_stdperiph_lib/Debug/libstm32f405rg_stdperiph_lib.a(misc.o)
 .debug_ranges  0x000002c0       0xd0 /home/bj/workspace/eclipse/stm32/stm32f405rg_stdperiph_lib/Debug/libstm32f405rg_stdperiph_lib.a(stm32f4xx_can.o)
 .debug_ranges  0x00000390       0xa0 /home/bj/workspace/eclipse/stm32/stm32f405rg_stdperiph_lib/Debug/libstm32f405rg_stdperiph_lib.a(stm32f4xx_dma.o)
 .debug_ranges  0x00000430       0x78 /home/bj/workspace/eclipse/stm32/stm32f405rg_stdperiph_lib/Debug/libstm32f405rg_stdperiph_lib.a(stm32f4xx_gpio.o)
 .debug_ranges  0x000004a8      0x1b0 /home/bj/workspace/eclipse/stm32/stm32f405rg_stdperiph_lib/Debug/libstm32f405rg_stdperiph_lib.a(stm32f4xx_rcc.o)
 .debug_ranges  0x00000658      0x2e8 /home/bj/workspace/eclipse/stm32/stm32f405rg_stdperiph_lib/Debug/libstm32f405rg_stdperiph_lib.a(stm32f4xx_tim.o)
 .debug_ranges  0x00000940       0xf0 /home/bj/workspace/eclipse/stm32/stm32f405rg_stdperiph_lib/Debug/libstm32f405rg_stdperiph_lib.a(stm32f4xx_usart.o)

.debug_macro    0x00000000    0x1694b
 .debug_macro   0x00000000      0x3b5 src/bsp.o
 .debug_macro   0x000003b5      0x8aa src/bsp.o
 .debug_macro   0x00000c5f       0x22 src/bsp.o
 .debug_macro   0x00000c81       0x87 src/bsp.o
 .debug_macro   0x00000d08       0x44 src/bsp.o
 .debug_macro   0x00000d4c       0xfd src/bsp.o
 .debug_macro   0x00000e49       0x5e src/bsp.o
 .debug_macro   0x00000ea7      0x1df src/bsp.o
 .debug_macro   0x00001086       0x7c src/bsp.o
 .debug_macro   0x00001102       0x6b src/bsp.o
 .debug_macro   0x0000116d       0x3b src/bsp.o
 .debug_macro   0x000011a8       0x34 src/bsp.o
 .debug_macro   0x000011dc       0x26 src/bsp.o
 .debug_macro   0x00001202      0xe43 src/bsp.o
 .debug_macro   0x00002045     0x91ad src/bsp.o
 .debug_macro   0x0000b1f2      0x3c9 src/bsp.o
 .debug_macro   0x0000b5bb      0x477 src/bsp.o
 .debug_macro   0x0000ba32       0xb5 src/bsp.o
 .debug_macro   0x0000bae7      0x2fb src/bsp.o
 .debug_macro   0x0000bde2      0x65f src/bsp.o
 .debug_macro   0x0000c441      0x114 src/bsp.o
 .debug_macro   0x0000c555      0x73b src/bsp.o
 .debug_macro   0x0000cc90      0x223 src/bsp.o
 .debug_macro   0x0000ceb3       0x82 src/bsp.o
 .debug_macro   0x0000cf35       0x35 src/bsp.o
 .debug_macro   0x0000cf6a       0x52 src/bsp.o
 .debug_macro   0x0000cfbc       0x35 src/bsp.o
 .debug_macro   0x0000cff1       0x9c src/bsp.o
 .debug_macro   0x0000d08d       0x16 src/bsp.o
 .debug_macro   0x0000d0a3       0x97 src/bsp.o
 .debug_macro   0x0000d13a      0x30d src/bsp.o
 .debug_macro   0x0000d447       0xfd src/bsp.o
 .debug_macro   0x0000d544       0x10 src/bsp.o
 .debug_macro   0x0000d554       0x52 src/bsp.o
 .debug_macro   0x0000d5a6       0x1f src/bsp.o
 .debug_macro   0x0000d5c5       0x43 src/bsp.o
 .debug_macro   0x0000d608       0x20 src/bsp.o
 .debug_macro   0x0000d628      0x187 src/bsp.o
 .debug_macro   0x0000d7af       0x10 src/bsp.o
 .debug_macro   0x0000d7bf       0x1c src/bsp.o
 .debug_macro   0x0000d7db       0x52 src/bsp.o
 .debug_macro   0x0000d82d       0x40 src/bsp.o
 .debug_macro   0x0000d86d       0x10 src/bsp.o
 .debug_macro   0x0000d87d       0x40 src/bsp.o
 .debug_macro   0x0000d8bd       0xd7 src/bsp.o
 .debug_macro   0x0000d994       0x16 src/bsp.o
 .debug_macro   0x0000d9aa      0x189 src/bsp.o
 .debug_macro   0x0000db33      0x1e1 src/bsp.o
 .debug_macro   0x0000dd14       0x16 src/bsp.o
 .debug_macro   0x0000dd2a       0x35 src/bsp.o
 .debug_macro   0x0000dd5f       0x52 src/bsp.o
 .debug_macro   0x0000ddb1       0x82 src/bsp.o
 .debug_macro   0x0000de33       0x34 src/bsp.o
 .debug_macro   0x0000de67       0x16 src/bsp.o
 .debug_macro   0x0000de7d       0x16 src/bsp.o
 .debug_macro   0x0000de93       0x29 src/bsp.o
 .debug_macro   0x0000debc       0x2e src/bsp.o
 .debug_macro   0x0000deea       0x22 src/bsp.o
 .debug_macro   0x0000df0c       0x40 src/bsp.o
 .debug_macro   0x0000df4c       0x64 src/bsp.o
 .debug_macro   0x0000dfb0       0x22 src/bsp.o
 .debug_macro   0x0000dfd2       0x16 src/bsp.o
 .debug_macro   0x0000dfe8       0x10 src/bsp.o
 .debug_macro   0x0000dff8       0x16 src/bsp.o
 .debug_macro   0x0000e00e       0x10 src/bsp.o
 .debug_macro   0x0000e01e       0x10 src/bsp.o
 .debug_macro   0x0000e02e       0x34 src/bsp.o
 .debug_macro   0x0000e062       0x1c src/bsp.o
 .debug_macro   0x0000e07e       0x16 src/bsp.o
 .debug_macro   0x0000e094      0x3b5 src/can1.o
 .debug_macro   0x0000e449      0x3b5 src/can2.o
 .debug_macro   0x0000e7fe      0x3b5 src/can2_task.o
 .debug_macro   0x0000ebb3       0x6d src/crc16.o
 .debug_macro   0x0000ec20      0x149 src/fifo.o
 .debug_macro   0x0000ed69      0x10e src/fifo.o
 .debug_macro   0x0000ee77       0x8d src/fifo.o
 .debug_macro   0x0000ef04      0x3b5 src/led.o
 .debug_macro   0x0000f2b9      0x3b5 src/main.o
 .debug_macro   0x0000f66e       0x1a src/mecanum.o
 .debug_macro   0x0000f688      0x3b5 src/odom_task.o
 .debug_macro   0x0000fa3d      0x3b5 src/pwm.o
 .debug_macro   0x0000fdf2      0x3b5 src/quad_encoder.o
 .debug_macro   0x000101a7      0x222 src/syscalls.o
 .debug_macro   0x000103c9       0x4c src/syscalls.o
 .debug_macro   0x00010415       0x8d src/syscalls.o
 .debug_macro   0x000104a2       0x4a src/syscalls.o
 .debug_macro   0x000104ec      0x174 src/syscalls.o
 .debug_macro   0x00010660       0x10 src/syscalls.o
 .debug_macro   0x00010670       0x10 src/syscalls.o
 .debug_macro   0x00010680       0x10 src/syscalls.o
 .debug_macro   0x00010690       0x35 src/syscalls.o
 .debug_macro   0x000106c5      0x122 src/syscalls.o
 .debug_macro   0x000107e7       0x10 src/syscalls.o
 .debug_macro   0x000107f7      0x241 src/syscalls.o
 .debug_macro   0x00010a38       0x1c src/syscalls.o
 .debug_macro   0x00010a54      0x159 src/syscalls.o
 .debug_macro   0x00010bad       0x16 src/syscalls.o
 .debug_macro   0x00010bc3       0x88 src/syscalls.o
 .debug_macro   0x00010c4b      0x140 src/system_stm32f4xx.o
 .debug_macro   0x00010d8b      0x3b5 src/timer.o
 .debug_macro   0x00011140      0x3b5 src/usart1.o
 .debug_macro   0x000114f5      0x3b5 src/usart3.o
 .debug_macro   0x000118aa      0x1be /home/bj/workspace/eclipse/stm32/stm32f405rg_stdperiph_lib/Debug/libstm32f405rg_stdperiph_lib.a(misc.o)
 .debug_macro   0x00011a68      0x8a4 /home/bj/workspace/eclipse/stm32/stm32f405rg_stdperiph_lib/Debug/libstm32f405rg_stdperiph_lib.a(misc.o)
 .debug_macro   0x0001230c      0x44f /home/bj/workspace/eclipse/stm32/stm32f405rg_stdperiph_lib/Debug/libstm32f405rg_stdperiph_lib.a(misc.o)
 .debug_macro   0x0001275b       0xb2 /home/bj/workspace/eclipse/stm32/stm32f405rg_stdperiph_lib/Debug/libstm32f405rg_stdperiph_lib.a(misc.o)
 .debug_macro   0x0001280d      0x41c /home/bj/workspace/eclipse/stm32/stm32f405rg_stdperiph_lib/Debug/libstm32f405rg_stdperiph_lib.a(misc.o)
 .debug_macro   0x00012c29      0x2ba /home/bj/workspace/eclipse/stm32/stm32f405rg_stdperiph_lib/Debug/libstm32f405rg_stdperiph_lib.a(misc.o)
 .debug_macro   0x00012ee3       0x64 /home/bj/workspace/eclipse/stm32/stm32f405rg_stdperiph_lib/Debug/libstm32f405rg_stdperiph_lib.a(misc.o)
 .debug_macro   0x00012f47       0xee /home/bj/workspace/eclipse/stm32/stm32f405rg_stdperiph_lib/Debug/libstm32f405rg_stdperiph_lib.a(misc.o)
 .debug_macro   0x00013035      0x59e /home/bj/workspace/eclipse/stm32/stm32f405rg_stdperiph_lib/Debug/libstm32f405rg_stdperiph_lib.a(misc.o)
 .debug_macro   0x000135d3      0x342 /home/bj/workspace/eclipse/stm32/stm32f405rg_stdperiph_lib/Debug/libstm32f405rg_stdperiph_lib.a(misc.o)
 .debug_macro   0x00013915      0x36c /home/bj/workspace/eclipse/stm32/stm32f405rg_stdperiph_lib/Debug/libstm32f405rg_stdperiph_lib.a(misc.o)
 .debug_macro   0x00013c81       0x34 /home/bj/workspace/eclipse/stm32/stm32f405rg_stdperiph_lib/Debug/libstm32f405rg_stdperiph_lib.a(misc.o)
 .debug_macro   0x00013cb5      0x144 /home/bj/workspace/eclipse/stm32/stm32f405rg_stdperiph_lib/Debug/libstm32f405rg_stdperiph_lib.a(misc.o)
 .debug_macro   0x00013df9       0xc3 /home/bj/workspace/eclipse/stm32/stm32f405rg_stdperiph_lib/Debug/libstm32f405rg_stdperiph_lib.a(misc.o)
 .debug_macro   0x00013ebc       0x40 /home/bj/workspace/eclipse/stm32/stm32f405rg_stdperiph_lib/Debug/libstm32f405rg_stdperiph_lib.a(misc.o)
 .debug_macro   0x00013efc      0x3cf /home/bj/workspace/eclipse/stm32/stm32f405rg_stdperiph_lib/Debug/libstm32f405rg_stdperiph_lib.a(misc.o)
 .debug_macro   0x000142cb      0x188 /home/bj/workspace/eclipse/stm32/stm32f405rg_stdperiph_lib/Debug/libstm32f405rg_stdperiph_lib.a(misc.o)
 .debug_macro   0x00014453      0x149 /home/bj/workspace/eclipse/stm32/stm32f405rg_stdperiph_lib/Debug/libstm32f405rg_stdperiph_lib.a(misc.o)
 .debug_macro   0x0001459c       0x7c /home/bj/workspace/eclipse/stm32/stm32f405rg_stdperiph_lib/Debug/libstm32f405rg_stdperiph_lib.a(misc.o)
 .debug_macro   0x00014618      0x211 /home/bj/workspace/eclipse/stm32/stm32f405rg_stdperiph_lib/Debug/libstm32f405rg_stdperiph_lib.a(stm32f4xx_can.o)
 .debug_macro   0x00014829      0x210 /home/bj/workspace/eclipse/stm32/stm32f405rg_stdperiph_lib/Debug/libstm32f405rg_stdperiph_lib.a(stm32f4xx_dma.o)
 .debug_macro   0x00014a39      0x471 /home/bj/workspace/eclipse/stm32/stm32f405rg_stdperiph_lib/Debug/libstm32f405rg_stdperiph_lib.a(stm32f4xx_dma.o)
 .debug_macro   0x00014eaa      0x1bc /home/bj/workspace/eclipse/stm32/stm32f405rg_stdperiph_lib/Debug/libstm32f405rg_stdperiph_lib.a(stm32f4xx_gpio.o)
 .debug_macro   0x00015066      0x2f5 /home/bj/workspace/eclipse/stm32/stm32f405rg_stdperiph_lib/Debug/libstm32f405rg_stdperiph_lib.a(stm32f4xx_gpio.o)
 .debug_macro   0x0001535b      0x28b /home/bj/workspace/eclipse/stm32/stm32f405rg_stdperiph_lib/Debug/libstm32f405rg_stdperiph_lib.a(stm32f4xx_rcc.o)
 .debug_macro   0x000155e6      0x659 /home/bj/workspace/eclipse/stm32/stm32f405rg_stdperiph_lib/Debug/libstm32f405rg_stdperiph_lib.a(stm32f4xx_rcc.o)
 .debug_macro   0x00015c3f      0x1e6 /home/bj/workspace/eclipse/stm32/stm32f405rg_stdperiph_lib/Debug/libstm32f405rg_stdperiph_lib.a(stm32f4xx_tim.o)
 .debug_macro   0x00015e25      0x735 /home/bj/workspace/eclipse/stm32/stm32f405rg_stdperiph_lib/Debug/libstm32f405rg_stdperiph_lib.a(stm32f4xx_tim.o)
 .debug_macro   0x0001655a      0x1d4 /home/bj/workspace/eclipse/stm32/stm32f405rg_stdperiph_lib/Debug/libstm32f405rg_stdperiph_lib.a(stm32f4xx_usart.o)
 .debug_macro   0x0001672e      0x21d /home/bj/workspace/eclipse/stm32/stm32f405rg_stdperiph_lib/Debug/libstm32f405rg_stdperiph_lib.a(stm32f4xx_usart.o)

.debug_line     0x00000000     0xb05e
 .debug_line    0x00000000      0x762 src/bsp.o
 .debug_line    0x00000762      0x7ab src/can1.o
 .debug_line    0x00000f0d      0x7aa src/can2.o
 .debug_line    0x000016b7      0x771 src/can2_task.o
 .debug_line    0x00001e28      0x34b src/crc16.o
 .debug_line    0x00002173      0x476 src/fifo.o
 .debug_line    0x000025e9      0x75e src/led.o
 .debug_line    0x00002d47      0x75a src/main.o
 .debug_line    0x000034a1       0x95 src/mecanum.o
 .debug_line    0x00003536      0x76f src/odom_task.o
 .debug_line    0x00003ca5      0x790 src/pwm.o
 .debug_line    0x00004435      0x76b src/quad_encoder.o
 .debug_line    0x00004ba0      0x5a8 src/syscalls.o
 .debug_line    0x00005148      0x56f src/system_stm32f4xx.o
 .debug_line    0x000056b7      0x7b6 src/timer.o
 .debug_line    0x00005e6d      0x7a9 src/usart1.o
 .debug_line    0x00006616      0x7e6 src/usart3.o
 .debug_line    0x00006dfc       0x79 startup/startup_stm32.o
 .debug_line    0x00006e75      0x664 /home/bj/workspace/eclipse/stm32/stm32f405rg_stdperiph_lib/Debug/libstm32f405rg_stdperiph_lib.a(misc.o)
 .debug_line    0x000074d9      0x982 /home/bj/workspace/eclipse/stm32/stm32f405rg_stdperiph_lib/Debug/libstm32f405rg_stdperiph_lib.a(stm32f4xx_can.o)
 .debug_line    0x00007e5b      0x847 /home/bj/workspace/eclipse/stm32/stm32f405rg_stdperiph_lib/Debug/libstm32f405rg_stdperiph_lib.a(stm32f4xx_dma.o)
 .debug_line    0x000086a2      0x78c /home/bj/workspace/eclipse/stm32/stm32f405rg_stdperiph_lib/Debug/libstm32f405rg_stdperiph_lib.a(stm32f4xx_gpio.o)
 .debug_line    0x00008e2e      0xa80 /home/bj/workspace/eclipse/stm32/stm32f405rg_stdperiph_lib/Debug/libstm32f405rg_stdperiph_lib.a(stm32f4xx_rcc.o)
 .debug_line    0x000098ae      0xede /home/bj/workspace/eclipse/stm32/stm32f405rg_stdperiph_lib/Debug/libstm32f405rg_stdperiph_lib.a(stm32f4xx_tim.o)
 .debug_line    0x0000a78c      0x8d2 /home/bj/workspace/eclipse/stm32/stm32f405rg_stdperiph_lib/Debug/libstm32f405rg_stdperiph_lib.a(stm32f4xx_usart.o)

.debug_str      0x00000000    0x6868e
 .debug_str     0x00000000    0x514b3 src/bsp.o
                              0x516f9 (size before relaxing)
 .debug_str     0x000514b3      0x92b src/can1.o
                              0x52077 (size before relaxing)
 .debug_str     0x00051dde       0x4b src/can2.o
                              0x52077 (size before relaxing)
 .debug_str     0x00051e29       0xc6 src/can2_task.o
                              0x517b8 (size before relaxing)
 .debug_str     0x00051eef       0x4c src/crc16.o
                               0x3473 (size before relaxing)
 .debug_str     0x00051f3b       0x7f src/fifo.o
                               0x5f66 (size before relaxing)
 .debug_str     0x00051fba       0x18 src/led.o
                              0x51856 (size before relaxing)
 .debug_str     0x00051fd2       0xa8 src/main.o
                              0x5179b (size before relaxing)
 .debug_str     0x0005207a       0x45 src/mecanum.o
                               0x25b3 (size before relaxing)
 .debug_str     0x000520bf       0x41 src/odom_task.o
                              0x5178d (size before relaxing)
 .debug_str     0x00052100      0x109 src/pwm.o
                              0x51a39 (size before relaxing)
 .debug_str     0x00052209       0x29 src/quad_encoder.o
                              0x51959 (size before relaxing)
 .debug_str     0x00052232     0x108f src/syscalls.o
                               0x7717 (size before relaxing)
 .debug_str     0x000532c1      0x21c src/system_stm32f4xx.o
                              0x4c1a8 (size before relaxing)
 .debug_str     0x000534dd       0x56 src/timer.o
                              0x51df6 (size before relaxing)
 .debug_str     0x00053533      0x21d src/usart1.o
                              0x52053 (size before relaxing)
 .debug_str     0x00053750      0x3f4 src/usart3.o
                              0x522ec (size before relaxing)
 .debug_str     0x00053b44    0x123ae /home/bj/workspace/eclipse/stm32/stm32f405rg_stdperiph_lib/Debug/libstm32f405rg_stdperiph_lib.a(misc.o)
                              0x5e3ce (size before relaxing)
 .debug_str     0x00065ef2      0x4f2 /home/bj/workspace/eclipse/stm32/stm32f405rg_stdperiph_lib/Debug/libstm32f405rg_stdperiph_lib.a(stm32f4xx_can.o)
                              0x5e900 (size before relaxing)
 .debug_str     0x000663e4      0x570 /home/bj/workspace/eclipse/stm32/stm32f405rg_stdperiph_lib/Debug/libstm32f405rg_stdperiph_lib.a(stm32f4xx_dma.o)
                              0x5e834 (size before relaxing)
 .debug_str     0x00066954      0x182 /home/bj/workspace/eclipse/stm32/stm32f405rg_stdperiph_lib/Debug/libstm32f405rg_stdperiph_lib.a(stm32f4xx_gpio.o)
                              0x5e476 (size before relaxing)
 .debug_str     0x00066ad6      0xc60 /home/bj/workspace/eclipse/stm32/stm32f405rg_stdperiph_lib/Debug/libstm32f405rg_stdperiph_lib.a(stm32f4xx_rcc.o)
                              0x5ef83 (size before relaxing)
 .debug_str     0x00067736      0xaa4 /home/bj/workspace/eclipse/stm32/stm32f405rg_stdperiph_lib/Debug/libstm32f405rg_stdperiph_lib.a(stm32f4xx_tim.o)
                              0x5ee6d (size before relaxing)
 .debug_str     0x000681da      0x4b4 /home/bj/workspace/eclipse/stm32/stm32f405rg_stdperiph_lib/Debug/libstm32f405rg_stdperiph_lib.a(stm32f4xx_usart.o)
                              0x5e789 (size before relaxing)

.comment        0x00000000       0x6e
 .comment       0x00000000       0x6e src/bsp.o
                                 0x6f (size before relaxing)
 .comment       0x0000006e       0x6f src/can1.o
 .comment       0x0000006e       0x6f src/can2.o
 .comment       0x0000006e       0x6f src/can2_task.o
 .comment       0x0000006e       0x6f src/crc16.o
 .comment       0x0000006e       0x6f src/fifo.o
 .comment       0x0000006e       0x6f src/led.o
 .comment       0x0000006e       0x6f src/main.o
 .comment       0x0000006e       0x6f src/mecanum.o
 .comment       0x0000006e       0x6f src/odom_task.o
 .comment       0x0000006e       0x6f src/pwm.o
 .comment       0x0000006e       0x6f src/quad_encoder.o
 .comment       0x0000006e       0x6f src/syscalls.o
 .comment       0x0000006e       0x6f src/system_stm32f4xx.o
 .comment       0x0000006e       0x6f src/timer.o
 .comment       0x0000006e       0x6f src/usart1.o
 .comment       0x0000006e       0x6f src/usart3.o
 .comment       0x0000006e       0x6f /home/bj/workspace/eclipse/stm32/stm32f405rg_stdperiph_lib/Debug/libstm32f405rg_stdperiph_lib.a(misc.o)
 .comment       0x0000006e       0x6f /home/bj/workspace/eclipse/stm32/stm32f405rg_stdperiph_lib/Debug/libstm32f405rg_stdperiph_lib.a(stm32f4xx_can.o)
 .comment       0x0000006e       0x6f /home/bj/workspace/eclipse/stm32/stm32f405rg_stdperiph_lib/Debug/libstm32f405rg_stdperiph_lib.a(stm32f4xx_dma.o)
 .comment       0x0000006e       0x6f /home/bj/workspace/eclipse/stm32/stm32f405rg_stdperiph_lib/Debug/libstm32f405rg_stdperiph_lib.a(stm32f4xx_gpio.o)
 .comment       0x0000006e       0x6f /home/bj/workspace/eclipse/stm32/stm32f405rg_stdperiph_lib/Debug/libstm32f405rg_stdperiph_lib.a(stm32f4xx_rcc.o)
 .comment       0x0000006e       0x6f /home/bj/workspace/eclipse/stm32/stm32f405rg_stdperiph_lib/Debug/libstm32f405rg_stdperiph_lib.a(stm32f4xx_tim.o)
 .comment       0x0000006e       0x6f /home/bj/workspace/eclipse/stm32/stm32f405rg_stdperiph_lib/Debug/libstm32f405rg_stdperiph_lib.a(stm32f4xx_usart.o)

.debug_frame    0x00000000     0x319c
 .debug_frame   0x00000000       0x2c src/bsp.o
 .debug_frame   0x0000002c       0x6c src/can1.o
 .debug_frame   0x00000098       0x6c src/can2.o
 .debug_frame   0x00000104       0x34 src/can2_task.o
 .debug_frame   0x00000138       0x80 src/crc16.o
 .debug_frame   0x000001b8      0x170 src/fifo.o
 .debug_frame   0x00000328       0x34 src/led.o
 .debug_frame   0x0000035c       0x2c src/main.o
 .debug_frame   0x00000388       0x60 src/mecanum.o
 .debug_frame   0x000003e8       0x34 src/odom_task.o
 .debug_frame   0x0000041c       0x34 src/pwm.o
 .debug_frame   0x00000450       0x34 src/quad_encoder.o
 .debug_frame   0x00000484      0x2d4 src/syscalls.o
 .debug_frame   0x00000758       0x7c src/system_stm32f4xx.o
 .debug_frame   0x000007d4       0xac src/timer.o
 .debug_frame   0x00000880       0x58 src/usart1.o
 .debug_frame   0x000008d8       0xc4 src/usart3.o
 .debug_frame   0x0000099c       0xd8 /home/bj/workspace/eclipse/stm32/stm32f405rg_stdperiph_lib/Debug/libstm32f405rg_stdperiph_lib.a(misc.o)
 .debug_frame   0x00000a74      0x3f0 /home/bj/workspace/eclipse/stm32/stm32f405rg_stdperiph_lib/Debug/libstm32f405rg_stdperiph_lib.a(stm32f4xx_can.o)
 .debug_frame   0x00000e64      0x308 /home/bj/workspace/eclipse/stm32/stm32f405rg_stdperiph_lib/Debug/libstm32f405rg_stdperiph_lib.a(stm32f4xx_dma.o)
 .debug_frame   0x0000116c      0x23c /home/bj/workspace/eclipse/stm32/stm32f405rg_stdperiph_lib/Debug/libstm32f405rg_stdperiph_lib.a(stm32f4xx_gpio.o)
 .debug_frame   0x000013a8      0x83c /home/bj/workspace/eclipse/stm32/stm32f405rg_stdperiph_lib/Debug/libstm32f405rg_stdperiph_lib.a(stm32f4xx_rcc.o)
 .debug_frame   0x00001be4      0xe54 /home/bj/workspace/eclipse/stm32/stm32f405rg_stdperiph_lib/Debug/libstm32f405rg_stdperiph_lib.a(stm32f4xx_tim.o)
 .debug_frame   0x00002a38      0x490 /home/bj/workspace/eclipse/stm32/stm32f405rg_stdperiph_lib/Debug/libstm32f405rg_stdperiph_lib.a(stm32f4xx_usart.o)
 .debug_frame   0x00002ec8       0x20 /home/bj/.p2/pool/plugins/fr.ac6.mcu.externaltools.arm-none.linux64_1.12.0.201611241417/tools/compiler/bin/../lib/gcc/arm-none-eabi/5.4.1/../../../../arm-none-eabi/lib/armv7e-m/fpu/libc.a(lib_a-errno.o)
 .debug_frame   0x00002ee8       0x2c /home/bj/.p2/pool/plugins/fr.ac6.mcu.externaltools.arm-none.linux64_1.12.0.201611241417/tools/compiler/bin/../lib/gcc/arm-none-eabi/5.4.1/../../../../arm-none-eabi/lib/armv7e-m/fpu/libc.a(lib_a-init.o)
 .debug_frame   0x00002f14       0x30 /home/bj/.p2/pool/plugins/fr.ac6.mcu.externaltools.arm-none.linux64_1.12.0.201611241417/tools/compiler/bin/../lib/gcc/arm-none-eabi/5.4.1/../../../../arm-none-eabi/lib/armv7e-m/fpu/libc.a(lib_a-malloc.o)
 .debug_frame   0x00002f44       0x58 /home/bj/.p2/pool/plugins/fr.ac6.mcu.externaltools.arm-none.linux64_1.12.0.201611241417/tools/compiler/bin/../lib/gcc/arm-none-eabi/5.4.1/../../../../arm-none-eabi/lib/armv7e-m/fpu/libc.a(lib_a-mallocr.o)
 .debug_frame   0x00002f9c       0x30 /home/bj/.p2/pool/plugins/fr.ac6.mcu.externaltools.arm-none.linux64_1.12.0.201611241417/tools/compiler/bin/../lib/gcc/arm-none-eabi/5.4.1/../../../../arm-none-eabi/lib/armv7e-m/fpu/libc.a(lib_a-mlock.o)
 .debug_frame   0x00002fcc       0x2c /home/bj/.p2/pool/plugins/fr.ac6.mcu.externaltools.arm-none.linux64_1.12.0.201611241417/tools/compiler/bin/../lib/gcc/arm-none-eabi/5.4.1/../../../../arm-none-eabi/lib/armv7e-m/fpu/libc.a(lib_a-sbrkr.o)
 .debug_frame   0x00002ff8       0x50 /home/bj/.p2/pool/plugins/fr.ac6.mcu.externaltools.arm-none.linux64_1.12.0.201611241417/tools/compiler/bin/../lib/gcc/arm-none-eabi/5.4.1/../../../../arm-none-eabi/lib/armv7e-m/fpu/libc.a(lib_a-__call_atexit.o)
 .debug_frame   0x00003048       0x20 /home/bj/.p2/pool/plugins/fr.ac6.mcu.externaltools.arm-none.linux64_1.12.0.201611241417/tools/compiler/bin/../lib/gcc/arm-none-eabi/5.4.1/../../../../arm-none-eabi/lib/armv7e-m/fpu/libc.a(lib_a-atexit.o)
 .debug_frame   0x00003068       0x34 /home/bj/.p2/pool/plugins/fr.ac6.mcu.externaltools.arm-none.linux64_1.12.0.201611241417/tools/compiler/bin/../lib/gcc/arm-none-eabi/5.4.1/../../../../arm-none-eabi/lib/armv7e-m/fpu/libc.a(lib_a-fini.o)
 .debug_frame   0x0000309c       0x74 /home/bj/.p2/pool/plugins/fr.ac6.mcu.externaltools.arm-none.linux64_1.12.0.201611241417/tools/compiler/bin/../lib/gcc/arm-none-eabi/5.4.1/../../../../arm-none-eabi/lib/armv7e-m/fpu/libc.a(lib_a-freer.o)
 .debug_frame   0x00003110       0x58 /home/bj/.p2/pool/plugins/fr.ac6.mcu.externaltools.arm-none.linux64_1.12.0.201611241417/tools/compiler/bin/../lib/gcc/arm-none-eabi/5.4.1/../../../../arm-none-eabi/lib/armv7e-m/fpu/libc.a(lib_a-reent.o)
 .debug_frame   0x00003168       0x34 /home/bj/.p2/pool/plugins/fr.ac6.mcu.externaltools.arm-none.linux64_1.12.0.201611241417/tools/compiler/bin/../lib/gcc/arm-none-eabi/5.4.1/../../../../arm-none-eabi/lib/armv7e-m/fpu/libc.a(lib_a-__atexit.o)
